{
  "contractName": "RareSeedsMarket",
  "abi": [
    {
      "inputs": [],
      "stateMutability": "nonpayable",
      "type": "constructor"
    },
    {
      "anonymous": false,
      "inputs": [
        {
          "indexed": true,
          "internalType": "address",
          "name": "to",
          "type": "address"
        },
        {
          "indexed": false,
          "internalType": "int32",
          "name": "seedValue",
          "type": "int32"
        }
      ],
      "name": "Assign",
      "type": "event"
    },
    {
      "anonymous": false,
      "inputs": [
        {
          "indexed": true,
          "internalType": "int32",
          "name": "seedValue",
          "type": "int32"
        },
        {
          "indexed": false,
          "internalType": "uint256",
          "name": "value",
          "type": "uint256"
        },
        {
          "indexed": true,
          "internalType": "address",
          "name": "fromAddress",
          "type": "address"
        }
      ],
      "name": "SeedBidEntered",
      "type": "event"
    },
    {
      "anonymous": false,
      "inputs": [
        {
          "indexed": true,
          "internalType": "int32",
          "name": "seedValue",
          "type": "int32"
        },
        {
          "indexed": false,
          "internalType": "uint256",
          "name": "value",
          "type": "uint256"
        },
        {
          "indexed": true,
          "internalType": "address",
          "name": "fromAddress",
          "type": "address"
        }
      ],
      "name": "SeedBidWithdrawn",
      "type": "event"
    },
    {
      "anonymous": false,
      "inputs": [
        {
          "indexed": true,
          "internalType": "int32",
          "name": "seedValue",
          "type": "int32"
        },
        {
          "indexed": false,
          "internalType": "uint256",
          "name": "value",
          "type": "uint256"
        },
        {
          "indexed": true,
          "internalType": "address",
          "name": "fromAddress",
          "type": "address"
        },
        {
          "indexed": true,
          "internalType": "address",
          "name": "toAddress",
          "type": "address"
        }
      ],
      "name": "SeedBought",
      "type": "event"
    },
    {
      "anonymous": false,
      "inputs": [
        {
          "indexed": true,
          "internalType": "int32",
          "name": "seedValue",
          "type": "int32"
        }
      ],
      "name": "SeedNoLongerForSale",
      "type": "event"
    },
    {
      "anonymous": false,
      "inputs": [
        {
          "indexed": true,
          "internalType": "int32",
          "name": "seedValue",
          "type": "int32"
        },
        {
          "indexed": false,
          "internalType": "uint256",
          "name": "minValue",
          "type": "uint256"
        },
        {
          "indexed": true,
          "internalType": "address",
          "name": "toAddress",
          "type": "address"
        }
      ],
      "name": "SeedOffered",
      "type": "event"
    },
    {
      "anonymous": false,
      "inputs": [
        {
          "indexed": true,
          "internalType": "address",
          "name": "from",
          "type": "address"
        },
        {
          "indexed": true,
          "internalType": "address",
          "name": "to",
          "type": "address"
        },
        {
          "indexed": false,
          "internalType": "int32",
          "name": "seedValue",
          "type": "int32"
        }
      ],
      "name": "SeedTransfer",
      "type": "event"
    },
    {
      "anonymous": false,
      "inputs": [
        {
          "indexed": true,
          "internalType": "address",
          "name": "from",
          "type": "address"
        },
        {
          "indexed": true,
          "internalType": "address",
          "name": "to",
          "type": "address"
        },
        {
          "indexed": false,
          "internalType": "uint256",
          "name": "value",
          "type": "uint256"
        }
      ],
      "name": "Transfer",
      "type": "event"
    },
    {
      "inputs": [],
      "name": "allSeedsAssigned",
      "outputs": [
        {
          "internalType": "bool",
          "name": "",
          "type": "bool"
        }
      ],
      "stateMutability": "view",
      "type": "function",
      "constant": true
    },
    {
      "inputs": [
        {
          "internalType": "address",
          "name": "",
          "type": "address"
        }
      ],
      "name": "balanceOf",
      "outputs": [
        {
          "internalType": "uint256",
          "name": "",
          "type": "uint256"
        }
      ],
      "stateMutability": "view",
      "type": "function",
      "constant": true
    },
    {
      "inputs": [],
      "name": "decimals",
      "outputs": [
        {
          "internalType": "uint8",
          "name": "",
          "type": "uint8"
        }
      ],
      "stateMutability": "view",
      "type": "function",
      "constant": true
    },
    {
      "inputs": [
        {
          "internalType": "uint256",
          "name": "",
          "type": "uint256"
        }
      ],
      "name": "indexToSeed",
      "outputs": [
        {
          "internalType": "int32",
          "name": "",
          "type": "int32"
        }
      ],
      "stateMutability": "view",
      "type": "function",
      "constant": true
    },
    {
      "inputs": [],
      "name": "maxSeed",
      "outputs": [
        {
          "internalType": "int32",
          "name": "",
          "type": "int32"
        }
      ],
      "stateMutability": "view",
      "type": "function",
      "constant": true
    },
    {
      "inputs": [],
      "name": "minSeed",
      "outputs": [
        {
          "internalType": "int32",
          "name": "",
          "type": "int32"
        }
      ],
      "stateMutability": "view",
      "type": "function",
      "constant": true
    },
    {
      "inputs": [],
      "name": "name",
      "outputs": [
        {
          "internalType": "string",
          "name": "",
          "type": "string"
        }
      ],
      "stateMutability": "view",
      "type": "function",
      "constant": true
    },
    {
      "inputs": [
        {
          "internalType": "address",
          "name": "",
          "type": "address"
        }
      ],
      "name": "pendingWithdrawals",
      "outputs": [
        {
          "internalType": "uint256",
          "name": "",
          "type": "uint256"
        }
      ],
      "stateMutability": "view",
      "type": "function",
      "constant": true
    },
    {
      "inputs": [
        {
          "internalType": "int32",
          "name": "",
          "type": "int32"
        }
      ],
      "name": "seedBids",
      "outputs": [
        {
          "internalType": "bool",
          "name": "hasBid",
          "type": "bool"
        },
        {
          "internalType": "int32",
          "name": "seedValue",
          "type": "int32"
        },
        {
          "internalType": "address",
          "name": "bidder",
          "type": "address"
        },
        {
          "internalType": "uint256",
          "name": "value",
          "type": "uint256"
        }
      ],
      "stateMutability": "view",
      "type": "function",
      "constant": true
    },
    {
      "inputs": [],
      "name": "seedIndex",
      "outputs": [
        {
          "internalType": "uint256",
          "name": "",
          "type": "uint256"
        }
      ],
      "stateMutability": "view",
      "type": "function",
      "constant": true
    },
    {
      "inputs": [
        {
          "internalType": "int32",
          "name": "",
          "type": "int32"
        }
      ],
      "name": "seedValueToAddress",
      "outputs": [
        {
          "internalType": "address",
          "name": "",
          "type": "address"
        }
      ],
      "stateMutability": "view",
      "type": "function",
      "constant": true
    },
    {
      "inputs": [
        {
          "internalType": "int32",
          "name": "",
          "type": "int32"
        }
      ],
      "name": "seedsOfferedForSale",
      "outputs": [
        {
          "internalType": "bool",
          "name": "isForSale",
          "type": "bool"
        },
        {
          "internalType": "int32",
          "name": "seedValue",
          "type": "int32"
        },
        {
          "internalType": "address",
          "name": "seller",
          "type": "address"
        },
        {
          "internalType": "uint256",
          "name": "minValue",
          "type": "uint256"
        },
        {
          "internalType": "address",
          "name": "onlySellTo",
          "type": "address"
        }
      ],
      "stateMutability": "view",
      "type": "function",
      "constant": true
    },
    {
      "inputs": [],
      "name": "seedsRemainingToAssign",
      "outputs": [
        {
          "internalType": "uint256",
          "name": "",
          "type": "uint256"
        }
      ],
      "stateMutability": "view",
      "type": "function",
      "constant": true
    },
    {
      "inputs": [],
      "name": "standard",
      "outputs": [
        {
          "internalType": "string",
          "name": "",
          "type": "string"
        }
      ],
      "stateMutability": "view",
      "type": "function",
      "constant": true
    },
    {
      "inputs": [],
      "name": "symbol",
      "outputs": [
        {
          "internalType": "string",
          "name": "",
          "type": "string"
        }
      ],
      "stateMutability": "view",
      "type": "function",
      "constant": true
    },
    {
      "inputs": [],
      "name": "totalSupply",
      "outputs": [
        {
          "internalType": "uint256",
          "name": "",
          "type": "uint256"
        }
      ],
      "stateMutability": "view",
      "type": "function",
      "constant": true
    },
    {
      "inputs": [
        {
          "internalType": "int32",
          "name": "seedValue",
          "type": "int32"
        }
      ],
      "name": "getSeed",
      "outputs": [],
      "stateMutability": "payable",
      "type": "function",
      "payable": true
    },
    {
      "inputs": [
        {
          "internalType": "int32",
          "name": "seedValue",
          "type": "int32"
        },
        {
          "internalType": "uint256",
          "name": "minSalePriceInWei",
          "type": "uint256"
        }
      ],
      "name": "offerSeedForSale",
      "outputs": [],
      "stateMutability": "nonpayable",
      "type": "function"
    },
    {
      "inputs": [
        {
          "internalType": "int32",
          "name": "seedValue",
          "type": "int32"
        }
      ],
      "name": "buySeed",
      "outputs": [],
      "stateMutability": "payable",
      "type": "function",
      "payable": true
    },
    {
      "inputs": [],
      "name": "withdraw",
      "outputs": [],
      "stateMutability": "payable",
      "type": "function",
      "payable": true
    },
    {
      "inputs": [
        {
          "internalType": "int32",
          "name": "seedValue",
          "type": "int32"
        }
      ],
      "name": "enterBidForSeed",
      "outputs": [],
      "stateMutability": "payable",
      "type": "function",
      "payable": true
    },
    {
      "inputs": [
        {
          "internalType": "int32",
          "name": "seedValue",
          "type": "int32"
        },
        {
          "internalType": "uint256",
          "name": "minPrice",
          "type": "uint256"
        }
      ],
      "name": "acceptBidForSeed",
      "outputs": [],
      "stateMutability": "nonpayable",
      "type": "function"
    },
    {
      "inputs": [
        {
          "internalType": "int32",
          "name": "seedValue",
          "type": "int32"
        }
      ],
      "name": "withdrawBidForSeed",
      "outputs": [],
      "stateMutability": "nonpayable",
      "type": "function"
    }
  ],
  "bytecode": "0x60806040526040518060400160405280600981526020017f5261726553656564730000000000000000000000000000000000000000000000815250600190805190602001906200005192919062000204565b50637fffffff600760006101000a81548163ffffffff021916908360030b63ffffffff1602179055507fffffffffffffffffffffffffffffffffffffffffffffffffffffffff80000001600760046101000a81548163ffffffff021916908360030b63ffffffff1602179055506000600760086101000a81548160ff0219169083151502179055506000600855348015620000eb57600080fd5b50336000806101000a81548173ffffffffffffffffffffffffffffffffffffffff021916908373ffffffffffffffffffffffffffffffffffffffff1602179055506101f46005819055506005546008819055506040518060400160405280600981526020017f5241524553454544530000000000000000000000000000000000000000000000815250600290805190602001906200018b92919062000204565b506040518060400160405280600381526020017f525358000000000000000000000000000000000000000000000000000000000081525060039080519060200190620001d992919062000204565b506000600460006101000a81548160ff021916908360ff1602179055506000600681905550620002aa565b828054600181600116156101000203166002900490600052602060002090601f016020900481019282601f106200024757805160ff191683800117855562000278565b8280016001018555821562000278579182015b82811115620002775782518255916020019190600101906200025a565b5b5090506200028791906200028b565b5090565b5b80821115620002a65760008160009055506001016200028c565b5090565b612e9b80620002ba6000396000f3fe6080604052600436106101405760003560e01c80635a3b7e42116100b6578063c79825941161006f578063c798259414610661578063ca921631146106a9578063de34ddf1146106d7578063f3f4370314610729578063f4b792001461078e578063f6e82875146107bb57610140565b80635a3b7e42146104155780636b75ae3f146104a557806370a08231146104d65780638c1fc3fa1461053b57806395d89b41146105a3578063ae497f3f1461063357610140565b80633ccfd60b116101085780633ccfd60b146102975780633f24fb9c146102a15780634a498ea1146102cc5780634d8fb935146102fd57806355593e3b14610345578063573623f3146103e457610140565b806306fdde031461014557806307b96bcc146101d557806318160ddd1461020057806321500e651461022b578063313ce56714610269575b600080fd5b34801561015157600080fd5b5061015a61083d565b6040518080602001828103825283818151815260200191508051906020019080838360005b8381101561019a57808201518184015260208101905061017f565b50505050905090810190601f1680156101c75780820380516001836020036101000a031916815260200191505b509250505060405180910390f35b3480156101e157600080fd5b506101ea6108db565b6040518082815260200191505060405180910390f35b34801561020c57600080fd5b506102156108e1565b6040518082815260200191505060405180910390f35b34801561023757600080fd5b506102676004803603602081101561024e57600080fd5b81019080803560030b90602001909291905050506108e7565b005b34801561027557600080fd5b5061027e610d0b565b604051808260ff16815260200191505060405180910390f35b61029f610d1e565b005b3480156102ad57600080fd5b506102b6610df1565b6040518082815260200191505060405180910390f35b6102fb600480360360208110156102e257600080fd5b81019080803560030b9060200190929190505050610df7565b005b34801561030957600080fd5b506103436004803603604081101561032057600080fd5b81019080803560030b9060200190929190803590602001909291905050506111f0565b005b34801561035157600080fd5b506103816004803603602081101561036857600080fd5b81019080803560030b906020019092919050505061185c565b6040518086151581526020018560030b81526020018473ffffffffffffffffffffffffffffffffffffffff1681526020018381526020018273ffffffffffffffffffffffffffffffffffffffff1681526020019550505050505060405180910390f35b610413600480360360208110156103fa57600080fd5b81019080803560030b90602001909291905050506118ec565b005b34801561042157600080fd5b5061042a611d17565b6040518080602001828103825283818151815260200191508051906020019080838360005b8381101561046a57808201518184015260208101905061044f565b50505050905090810190601f1680156104975780820380516001836020036101000a031916815260200191505b509250505060405180910390f35b6104d4600480360360208110156104bb57600080fd5b81019080803560030b9060200190929190505050611db5565b005b3480156104e257600080fd5b50610525600480360360208110156104f957600080fd5b81019080803573ffffffffffffffffffffffffffffffffffffffff169060200190929190505050612608565b6040518082815260200191505060405180910390f35b34801561054757600080fd5b506105776004803603602081101561055e57600080fd5b81019080803560030b9060200190929190505050612620565b604051808273ffffffffffffffffffffffffffffffffffffffff16815260200191505060405180910390f35b3480156105af57600080fd5b506105b8612653565b6040518080602001828103825283818151815260200191508051906020019080838360005b838110156105f85780820151818401526020810190506105dd565b50505050905090810190601f1680156106255780820380516001836020036101000a031916815260200191505b509250505060405180910390f35b34801561063f57600080fd5b506106486126f1565b604051808260030b815260200191505060405180910390f35b34801561066d57600080fd5b506106a76004803603604081101561068457600080fd5b81019080803560030b906020019092919080359060200190929190505050612704565b005b3480156106b557600080fd5b506106be612a10565b604051808260030b815260200191505060405180910390f35b3480156106e357600080fd5b50610710600480360360208110156106fa57600080fd5b8101908080359060200190929190505050612a23565b604051808260030b815260200191505060405180910390f35b34801561073557600080fd5b506107786004803603602081101561074c57600080fd5b81019080803573ffffffffffffffffffffffffffffffffffffffff169060200190929190505050612a43565b6040518082815260200191505060405180910390f35b34801561079a57600080fd5b506107a3612a5b565b60405180821515815260200191505060405180910390f35b3480156107c757600080fd5b506107f7600480360360208110156107de57600080fd5b81019080803560030b9060200190929190505050612a6e565b6040518085151581526020018460030b81526020018373ffffffffffffffffffffffffffffffffffffffff16815260200182815260200194505050505060405180910390f35b60028054600181600116156101000203166002900480601f0160208091040260200160405190810160405280929190818152602001828054600181600116156101000203166002900480156108d35780601f106108a8576101008083540402835291602001916108d3565b820191906000526020600020905b8154815290600101906020018083116108b657829003601f168201915b505050505081565b60085481565b60055481565b600015156108f482612ad8565b1515141561096a576040517f08c379a00000000000000000000000000000000000000000000000000000000081526004018080602001828103825260128152602001807f53656564206f7574206f662072616e67652e000000000000000000000000000081525060200191505060405180910390fd5b600760089054906101000a900460ff1661098357600080fd5b600073ffffffffffffffffffffffffffffffffffffffff16600960008360030b60030b815260200190815260200160002060009054906101000a900473ffffffffffffffffffffffffffffffffffffffff1673ffffffffffffffffffffffffffffffffffffffff1614156109f657600080fd5b3373ffffffffffffffffffffffffffffffffffffffff16600960008360030b60030b815260200190815260200160002060009054906101000a900473ffffffffffffffffffffffffffffffffffffffff1673ffffffffffffffffffffffffffffffffffffffff161415610a6857600080fd5b610a70612dc2565b600d60008360030b60030b81526020019081526020016000206040518060800160405290816000820160009054906101000a900460ff161515151581526020016000820160019054906101000a900460030b60030b60030b81526020016000820160059054906101000a900473ffffffffffffffffffffffffffffffffffffffff1673ffffffffffffffffffffffffffffffffffffffff1673ffffffffffffffffffffffffffffffffffffffff16815260200160018201548152505090503373ffffffffffffffffffffffffffffffffffffffff16816040015173ffffffffffffffffffffffffffffffffffffffff1614610b6a57600080fd5b3373ffffffffffffffffffffffffffffffffffffffff168260030b7f4d0f4d25f49644577fc6cc7676706741f4406eb45a9394c9e95d4165e23d5a2583606001516040518082815260200191505060405180910390a360008160600151905060405180608001604052806000151581526020018460030b8152602001600073ffffffffffffffffffffffffffffffffffffffff1681526020016000815250600d60008560030b60030b815260200190815260200160002060008201518160000160006101000a81548160ff02191690831515021790555060208201518160000160016101000a81548163ffffffff021916908360030b63ffffffff16021790555060408201518160000160056101000a81548173ffffffffffffffffffffffffffffffffffffffff021916908373ffffffffffffffffffffffffffffffffffffffff160217905550606082015181600101559050503373ffffffffffffffffffffffffffffffffffffffff166108fc829081150290604051600060405180830381858888f19350505050158015610d05573d6000803e3d6000fd5b50505050565b600460009054906101000a900460ff1681565b6000600e60003373ffffffffffffffffffffffffffffffffffffffff1673ffffffffffffffffffffffffffffffffffffffff1681526020019081526020016000205490506000600e60003373ffffffffffffffffffffffffffffffffffffffff1673ffffffffffffffffffffffffffffffffffffffff168152602001908152602001600020819055503373ffffffffffffffffffffffffffffffffffffffff166108fc829081150290604051600060405180830381858888f19350505050158015610ded573d6000803e3d6000fd5b5050565b60065481565b60001515610e0482612ad8565b15151415610e7a576040517f08c379a00000000000000000000000000000000000000000000000000000000081526004018080602001828103825260128152602001807f53656564206f7574206f662072616e67652e000000000000000000000000000081525060200191505060405180910390fd5b600073ffffffffffffffffffffffffffffffffffffffff16600960008360030b60030b815260200190815260200160002060009054906101000a900473ffffffffffffffffffffffffffffffffffffffff1673ffffffffffffffffffffffffffffffffffffffff161415610eed57600080fd5b3373ffffffffffffffffffffffffffffffffffffffff16600960008360030b60030b815260200190815260200160002060009054906101000a900473ffffffffffffffffffffffffffffffffffffffff1673ffffffffffffffffffffffffffffffffffffffff161415610f5f57600080fd5b6000341415610f6d57600080fd5b610f75612dc2565b600d60008360030b60030b81526020019081526020016000206040518060800160405290816000820160009054906101000a900460ff161515151581526020016000820160019054906101000a900460030b60030b60030b81526020016000820160059054906101000a900473ffffffffffffffffffffffffffffffffffffffff1673ffffffffffffffffffffffffffffffffffffffff1673ffffffffffffffffffffffffffffffffffffffff16815260200160018201548152505090508060600151341161104357600080fd5b6000816060015111156110a6578060600151600e6000836040015173ffffffffffffffffffffffffffffffffffffffff1673ffffffffffffffffffffffffffffffffffffffff168152602001908152602001600020600082825401925050819055505b60405180608001604052806001151581526020018360030b81526020013373ffffffffffffffffffffffffffffffffffffffff16815260200134815250600d60008460030b60030b815260200190815260200160002060008201518160000160006101000a81548160ff02191690831515021790555060208201518160000160016101000a81548163ffffffff021916908360030b63ffffffff16021790555060408201518160000160056101000a81548173ffffffffffffffffffffffffffffffffffffffff021916908373ffffffffffffffffffffffffffffffffffffffff160217905550606082015181600101559050503373ffffffffffffffffffffffffffffffffffffffff168260030b7f154fe56307d2c2ccc1e2128dac9b6a576c5a2cb114c4f57c45d2ecd587edec5f346040518082815260200191505060405180910390a35050565b600015156111fd83612ad8565b15151415611273576040517f08c379a00000000000000000000000000000000000000000000000000000000081526004018080602001828103825260128152602001807f53656564206f7574206f662072616e67652e000000000000000000000000000081525060200191505060405180910390fd5b3373ffffffffffffffffffffffffffffffffffffffff16600960008460030b60030b815260200190815260200160002060009054906101000a900473ffffffffffffffffffffffffffffffffffffffff1673ffffffffffffffffffffffffffffffffffffffff16146112e457600080fd5b60003390506112f1612dc2565b600d60008560030b60030b81526020019081526020016000206040518060800160405290816000820160009054906101000a900460ff161515151581526020016000820160019054906101000a900460030b60030b60030b81526020016000820160059054906101000a900473ffffffffffffffffffffffffffffffffffffffff1673ffffffffffffffffffffffffffffffffffffffff1673ffffffffffffffffffffffffffffffffffffffff16815260200160018201548152505090506000816060015114156113c157600080fd5b82816060015110156113d257600080fd5b8060400151600960008660030b60030b815260200190815260200160002060006101000a81548173ffffffffffffffffffffffffffffffffffffffff021916908373ffffffffffffffffffffffffffffffffffffffff160217905550600a60008373ffffffffffffffffffffffffffffffffffffffff1673ffffffffffffffffffffffffffffffffffffffff1681526020019081526020016000206000815480929190600190039190505550600a6000826040015173ffffffffffffffffffffffffffffffffffffffff1673ffffffffffffffffffffffffffffffffffffffff16815260200190815260200160002060008154809291906001019190505550806040015173ffffffffffffffffffffffffffffffffffffffff168273ffffffffffffffffffffffffffffffffffffffff167fddf252ad1be2c89b69c2b068fc378daa952ba7f163c4a11628f55a4df523b3ef60016040518082815260200191505060405180910390a36040518060a001604052806000151581526020018560030b8152602001826040015173ffffffffffffffffffffffffffffffffffffffff16815260200160008152602001600073ffffffffffffffffffffffffffffffffffffffff16815250600c60008660030b60030b815260200190815260200160002060008201518160000160006101000a81548160ff02191690831515021790555060208201518160000160016101000a81548163ffffffff021916908360030b63ffffffff16021790555060408201518160000160056101000a81548173ffffffffffffffffffffffffffffffffffffffff021916908373ffffffffffffffffffffffffffffffffffffffff1602179055506060820151816001015560808201518160020160006101000a81548173ffffffffffffffffffffffffffffffffffffffff021916908373ffffffffffffffffffffffffffffffffffffffff16021790555090505060008160600151905060405180608001604052806000151581526020018660030b8152602001600073ffffffffffffffffffffffffffffffffffffffff1681526020016000815250600d60008760030b60030b815260200190815260200160002060008201518160000160006101000a81548160ff02191690831515021790555060208201518160000160016101000a81548163ffffffff021916908360030b63ffffffff16021790555060408201518160000160056101000a81548173ffffffffffffffffffffffffffffffffffffffff021916908373ffffffffffffffffffffffffffffffffffffffff1602179055506060820151816001015590505080600e60008573ffffffffffffffffffffffffffffffffffffffff1673ffffffffffffffffffffffffffffffffffffffff16815260200190815260200160002060008282540192505081905550816040015173ffffffffffffffffffffffffffffffffffffffff168373ffffffffffffffffffffffffffffffffffffffff168660030b7f27a329d31e98a67357b29f64c6a9dbc3bfca828004b3caa87ac273892e27e9bb85606001516040518082815260200191505060405180910390a45050505050565b600c6020528060005260406000206000915090508060000160009054906101000a900460ff16908060000160019054906101000a900460030b908060000160059054906101000a900473ffffffffffffffffffffffffffffffffffffffff16908060010154908060020160009054906101000a900473ffffffffffffffffffffffffffffffffffffffff16905085565b600760089054906101000a900460ff161561196f576040517f08c379a00000000000000000000000000000000000000000000000000000000081526004018080602001828103825260138152602001807f416c6c2073656564732061737369676e65642e0000000000000000000000000081525060200191505060405180910390fd5b600060085414156119e8576040517f08c379a00000000000000000000000000000000000000000000000000000000081526004018080602001828103825260138152602001807f6e6f2073656564732072656d61696e696e672e0000000000000000000000000081525060200191505060405180910390fd5b6005546006541115611a62576040517f08c379a00000000000000000000000000000000000000000000000000000000081526004018080602001828103825260188152602001807f6e6f206d6f72652073656564732072656d61696e696e672e000000000000000081525060200191505060405180910390fd5b60001515611a6f82612ad8565b15151415611ae5576040517f08c379a00000000000000000000000000000000000000000000000000000000081526004018080602001828103825260128152602001807f53656564206f7574206f662072616e67652e000000000000000000000000000081525060200191505060405180910390fd5b600073ffffffffffffffffffffffffffffffffffffffff16600960008360030b60030b815260200190815260200160002060009054906101000a900473ffffffffffffffffffffffffffffffffffffffff1673ffffffffffffffffffffffffffffffffffffffff1614611bc0576040517f08c379a000000000000000000000000000000000000000000000000000000000815260040180806020018281038252600e8152602001807f416c72656164792074616b656e2e00000000000000000000000000000000000081525060200191505060405180910390fd5b33600960008360030b60030b815260200190815260200160002060006101000a81548173ffffffffffffffffffffffffffffffffffffffff021916908373ffffffffffffffffffffffffffffffffffffffff160217905550600a60003373ffffffffffffffffffffffffffffffffffffffff1673ffffffffffffffffffffffffffffffffffffffff168152602001908152602001600020600081548092919060010191905055506008600081548092919060019003919050555060066000815480929190600101919050555080600b6000600654815260200190815260200160002060006101000a81548163ffffffff021916908360030b63ffffffff1602179055503373ffffffffffffffffffffffffffffffffffffffff167f30ec87bc219c26335af358fb6740a527506873201a3781a965815d26f571bb1282604051808260030b815260200191505060405180910390a250565b60018054600181600116156101000203166002900480601f016020809104026020016040519081016040528092919081815260200182805460018160011615610100020316600290048015611dad5780601f10611d8257610100808354040283529160200191611dad565b820191906000526020600020905b815481529060010190602001808311611d9057829003601f168201915b505050505081565b600760089054906101000a900460ff16611e37576040517f08c379a00000000000000000000000000000000000000000000000000000000081526004018080602001828103825260138152602001807f416c6c2073656564732061737369676e65642e0000000000000000000000000081525060200191505060405180910390fd5b611e3f612e05565b600c60008360030b60030b81526020019081526020016000206040518060a00160405290816000820160009054906101000a900460ff161515151581526020016000820160019054906101000a900460030b60030b60030b81526020016000820160059054906101000a900473ffffffffffffffffffffffffffffffffffffffff1673ffffffffffffffffffffffffffffffffffffffff1673ffffffffffffffffffffffffffffffffffffffff168152602001600182015481526020016002820160009054906101000a900473ffffffffffffffffffffffffffffffffffffffff1673ffffffffffffffffffffffffffffffffffffffff1673ffffffffffffffffffffffffffffffffffffffff1681525050905060001515611f6083612ad8565b15151415611fd6576040517f08c379a00000000000000000000000000000000000000000000000000000000081526004018080602001828103825260128152602001807f53656564206f7574206f662072616e67652e000000000000000000000000000081525060200191505060405180910390fd5b806000015161204d576040517f08c379a000000000000000000000000000000000000000000000000000000000815260040180806020018281038252600c8152602001807f4e6f7420666f722073616c65000000000000000000000000000000000000000081525060200191505060405180910390fd5b600073ffffffffffffffffffffffffffffffffffffffff16816080015173ffffffffffffffffffffffffffffffffffffffff16141580156120be57503373ffffffffffffffffffffffffffffffffffffffff16816080015173ffffffffffffffffffffffffffffffffffffffff1614155b15612131576040517f08c379a000000000000000000000000000000000000000000000000000000000815260040180806020018281038252601c8152602001807f73656564206e6f7420737570706f73656420746f20626520736f6c640000000081525060200191505060405180910390fd5b80606001513410156121ab576040517f08c379a00000000000000000000000000000000000000000000000000000000081526004018080602001828103825260198152602001807f4d6f6e6579206f666665726564206e6f7420656e6f7567682e0000000000000081525060200191505060405180910390fd5b600960008360030b60030b815260200190815260200160002060009054906101000a900473ffffffffffffffffffffffffffffffffffffffff1673ffffffffffffffffffffffffffffffffffffffff16816040015173ffffffffffffffffffffffffffffffffffffffff161461222057600080fd5b60008160400151905033600960008560030b60030b815260200190815260200160002060006101000a81548173ffffffffffffffffffffffffffffffffffffffff021916908373ffffffffffffffffffffffffffffffffffffffff160217905550600a60008273ffffffffffffffffffffffffffffffffffffffff1673ffffffffffffffffffffffffffffffffffffffff1681526020019081526020016000206000815480929190600190039190505550600a60003373ffffffffffffffffffffffffffffffffffffffff1673ffffffffffffffffffffffffffffffffffffffff168152602001908152602001600020600081548092919060010191905055503373ffffffffffffffffffffffffffffffffffffffff168173ffffffffffffffffffffffffffffffffffffffff167fddf252ad1be2c89b69c2b068fc378daa952ba7f163c4a11628f55a4df523b3ef60016040518082815260200191505060405180910390a361238f83612b29565b34600e60008373ffffffffffffffffffffffffffffffffffffffff1673ffffffffffffffffffffffffffffffffffffffff168152602001908152602001600020600082825401925050819055503373ffffffffffffffffffffffffffffffffffffffff168173ffffffffffffffffffffffffffffffffffffffff168460030b7f27a329d31e98a67357b29f64c6a9dbc3bfca828004b3caa87ac273892e27e9bb346040518082815260200191505060405180910390a46000600d60008560030b60030b815260200190815260200160002090503373ffffffffffffffffffffffffffffffffffffffff168160000160059054906101000a900473ffffffffffffffffffffffffffffffffffffffff1673ffffffffffffffffffffffffffffffffffffffff161415612602578060010154600e60003373ffffffffffffffffffffffffffffffffffffffff1673ffffffffffffffffffffffffffffffffffffffff1681526020019081526020016000206000828254019250508190555060405180608001604052806000151581526020018560030b8152602001600073ffffffffffffffffffffffffffffffffffffffff1681526020016000815250600d60008660030b60030b815260200190815260200160002060008201518160000160006101000a81548160ff02191690831515021790555060208201518160000160016101000a81548163ffffffff021916908360030b63ffffffff16021790555060408201518160000160056101000a81548173ffffffffffffffffffffffffffffffffffffffff021916908373ffffffffffffffffffffffffffffffffffffffff160217905550606082015181600101559050505b50505050565b600a6020528060005260406000206000915090505481565b60096020528060005260406000206000915054906101000a900473ffffffffffffffffffffffffffffffffffffffff1681565b60038054600181600116156101000203166002900480601f0160208091040260200160405190810160405280929190818152602001828054600181600116156101000203166002900480156126e95780601f106126be576101008083540402835291602001916126e9565b820191906000526020600020905b8154815290600101906020018083116126cc57829003601f168201915b505050505081565b600760009054906101000a900460030b81565b3373ffffffffffffffffffffffffffffffffffffffff16600960008460030b60030b815260200190815260200160002060009054906101000a900473ffffffffffffffffffffffffffffffffffffffff1673ffffffffffffffffffffffffffffffffffffffff16146127de576040517f08c379a000000000000000000000000000000000000000000000000000000000815260040180806020018281038252601c8152602001807f53656e646572206973206e6f74206f776e6572206f6620736565642e0000000081525060200191505060405180910390fd5b600015156127eb83612ad8565b15151415612861576040517f08c379a00000000000000000000000000000000000000000000000000000000081526004018080602001828103825260128152602001807f53656564206f7574206f662072616e67652e000000000000000000000000000081525060200191505060405180910390fd5b6040518060a001604052806001151581526020018360030b81526020013373ffffffffffffffffffffffffffffffffffffffff168152602001828152602001600073ffffffffffffffffffffffffffffffffffffffff16815250600c60008460030b60030b815260200190815260200160002060008201518160000160006101000a81548160ff02191690831515021790555060208201518160000160016101000a81548163ffffffff021916908360030b63ffffffff16021790555060408201518160000160056101000a81548173ffffffffffffffffffffffffffffffffffffffff021916908373ffffffffffffffffffffffffffffffffffffffff1602179055506060820151816001015560808201518160020160006101000a81548173ffffffffffffffffffffffffffffffffffffffff021916908373ffffffffffffffffffffffffffffffffffffffff160217905550905050600073ffffffffffffffffffffffffffffffffffffffff168260030b7f15db32ca064018076ff811de6d63d7f971f2e082e910fd48b9811d6a05b43dc2836040518082815260200191505060405180910390a35050565b600760049054906101000a900460030b81565b600b6020528060005260406000206000915054906101000a900460030b81565b600e6020528060005260406000206000915090505481565b600760089054906101000a900460ff1681565b600d6020528060005260406000206000915090508060000160009054906101000a900460ff16908060000160019054906101000a900460030b908060000160059054906101000a900473ffffffffffffffffffffffffffffffffffffffff16908060010154905084565b6000600760009054906101000a900460030b60030b8260030b131580612b135750600760049054906101000a900460030b60030b8260030b12155b80612b22575060008260030b14155b9050919050565b600760089054906101000a900460ff16612b4257600080fd5b3373ffffffffffffffffffffffffffffffffffffffff16600960008360030b60030b815260200190815260200160002060009054906101000a900473ffffffffffffffffffffffffffffffffffffffff1673ffffffffffffffffffffffffffffffffffffffff1614612bb357600080fd5b60001515612bc082612ad8565b15151415612c36576040517f08c379a00000000000000000000000000000000000000000000000000000000081526004018080602001828103825260128152602001807f53656564206f7574206f662072616e67652e000000000000000000000000000081525060200191505060405180910390fd5b6040518060a001604052806000151581526020018260030b81526020013373ffffffffffffffffffffffffffffffffffffffff16815260200160008152602001600073ffffffffffffffffffffffffffffffffffffffff16815250600c60008360030b60030b815260200190815260200160002060008201518160000160006101000a81548160ff02191690831515021790555060208201518160000160016101000a81548163ffffffff021916908360030b63ffffffff16021790555060408201518160000160056101000a81548173ffffffffffffffffffffffffffffffffffffffff021916908373ffffffffffffffffffffffffffffffffffffffff1602179055506060820151816001015560808201518160020160006101000a81548173ffffffffffffffffffffffffffffffffffffffff021916908373ffffffffffffffffffffffffffffffffffffffff1602179055509050508060030b7f3dee170090d12a3e0e033efb61dbb1504b0de794dcf494137c8711064e08a82760405160405180910390a250565b6040518060800160405280600015158152602001600060030b8152602001600073ffffffffffffffffffffffffffffffffffffffff168152602001600081525090565b6040518060a00160405280600015158152602001600060030b8152602001600073ffffffffffffffffffffffffffffffffffffffff16815260200160008152602001600073ffffffffffffffffffffffffffffffffffffffff168152509056fea264697066735822122028dbd56039946b63601c12a8e40bca7fc1d5c80f683de49e1287489dd2a15a4164736f6c63430007000033",
  "immutableReferences": {},
  "source": "pragma solidity >=0.7.0 <0.9.0;\n//pragma solidity >=0.4.22 <0.9.0;\n\ncontract RareSeedsMarket {\n    address owner;\n\n    string public standard = \"RareSeeds\";\n    string public name;\n    string public symbol;\n    uint8 public decimals;\n    uint256 public totalSupply;\n\n    uint256 public seedIndex;\n\n    int32 public maxSeed = 2147483647;\n    int32 public minSeed = -2147483647;\n\n    bool public allSeedsAssigned = false;\n    uint256 public seedsRemainingToAssign = 0;\n\n\n    //mapping (address => uint) public addressToSeedIndex;\n    mapping(int32 => address) public seedValueToAddress;\n\n    /* This creates an array with all balances */\n    mapping(address => uint256) public balanceOf;\n\n    // This maps the mint index to the seed.\n    mapping(uint256 => int32) public indexToSeed;\n\n    struct Offer {\n        bool isForSale;\n        int32 seedValue;\n        address seller;\n        uint256 minValue; // in ether\n        address onlySellTo; // specify to sell only to a specific person\n    }\n\n    struct Bid {\n        bool hasBid;\n        int32 seedValue;\n        address bidder;\n        uint256 value;\n    }\n\n    // A record of seeds that are offered for sale at a specific minimum value, and perhaps to a specific person\n    mapping(int32 => Offer) public seedsOfferedForSale;\n\n    // A record of the highest seed bid\n    mapping(int32 => Bid) public seedBids;\n\n    mapping(address => uint256) public pendingWithdrawals;\n\n    event Assign(address indexed to, int32 seedValue);\n\n    event Transfer(address indexed from, address indexed to, uint256 value);\n\n    event SeedTransfer(\n        address indexed from,\n        address indexed to,\n        int32 seedValue\n    );\n\n    event SeedOffered(\n        int32 indexed seedValue,\n        uint256 minValue,\n        address indexed toAddress\n    );\n\n    event SeedBidEntered(\n        int32 indexed seedValue,\n        uint256 value,\n        address indexed fromAddress\n    );\n\n    event SeedBidWithdrawn(\n        int32 indexed seedValue,\n        uint256 value,\n        address indexed fromAddress\n    );\n\n    event SeedBought(\n        int32 indexed seedValue,\n        uint256 value,\n        address indexed fromAddress,\n        address indexed toAddress\n    );\n\n    event SeedNoLongerForSale(int32 indexed seedValue);\n\n    /* Initializes contract with initial supply tokens to the creator of the contract */\n    constructor() {\n        owner = msg.sender;\n        totalSupply = 500; // Update total supply\n        seedsRemainingToAssign = totalSupply;\n        name = \"RARESEEDS\"; // Set the name for display purposes\n        symbol = \"RSX\"; // Set the symbol for display purposes\n        decimals = 0; // Amount of decimals for display purposes\n        seedIndex = 0;\n    }\n\n    function setInitialOwner(address to, int32 seedValue) private {\n        assert(msg.sender != owner);\n        assert(allSeedsAssigned);\n        assert(seedValue >= 10000);\n        if (seedValueToAddress[seedValue] != to) {\n            balanceOf[seedValueToAddress[seedValue]]--;\n            seedValueToAddress[seedValue] = to;\n            balanceOf[to]++;\n            emit Assign(to, seedValue);\n        }\n    }\n\n    function setInitialOwners(\n        address[] calldata addresses,\n        int32[] calldata indices\n    ) private {\n        if (msg.sender != owner) revert();\n        uint256 n = addresses.length;\n        for (uint256 i = 0; i < n; i++) {\n            setInitialOwner(addresses[i], indices[i]);\n        }\n    }\n\n    function allInitialOwnersAssigned() private {\n        if (msg.sender != owner) revert();\n        allSeedsAssigned = true;\n    }\n\n    function isSeedValid(int32 seedValue) private view returns(bool) {\n        return (seedValue <= maxSeed || seedValue >= minSeed || seedValue != 0);\n    }\n\n    function getSeed(int32 seedValue) public payable {\n        if (allSeedsAssigned) revert(\"All seeds assigned.\");\n        if (seedsRemainingToAssign == 0) revert(\"no seeds remaining.\");\n        if (seedIndex > totalSupply) revert(\"no more seeds remaining.\");\n        if (isSeedValid(seedValue) == false)\n            revert(\"Seed out of range.\");\n        if (seedValueToAddress[seedValue] != address(0))\n            revert(\"Already taken.\");\n\n        seedValueToAddress[seedValue] = msg.sender;\n        balanceOf[msg.sender]++;\n        seedsRemainingToAssign--;\n        seedIndex++;\n        indexToSeed[seedIndex] = seedValue;\n        emit Assign(msg.sender, seedValue);\n    }\n\n    // Transfer ownership of a seed to another user without requiring payment\n    function transferSeed(address to, int32 seedValue) private {\n        if (!allSeedsAssigned) revert();\n        if (seedValueToAddress[seedValue] != msg.sender) revert();\n        if (isSeedValid(seedValue) == false)\n            revert(\"Seed out of range.\");\n        if (seedsOfferedForSale[seedValue].isForSale) {\n            seedNoLongerForSale(seedValue);\n        }\n        seedValueToAddress[seedValue] = to;\n        balanceOf[msg.sender]--;\n        balanceOf[to]++;\n\n        emit Transfer(msg.sender, to, 1);\n        emit SeedTransfer(msg.sender, to, seedValue);\n        // Check for the case where there is a bid from the new owner and refund it.\n        // Any other bid can stay in place.\n        Bid memory bid = seedBids[seedValue];\n        if (bid.bidder == to) {\n            // Kill bid and refund value\n            pendingWithdrawals[to] += bid.value;\n            seedBids[seedValue] = Bid(false, seedValue, address(0), 0);\n        }\n    }\n\n    function seedNoLongerForSale(int32 seedValue) private {\n        if (!allSeedsAssigned) revert();\n        if (seedValueToAddress[seedValue] != msg.sender) revert();\n        if (isSeedValid(seedValue) == false)\n            revert(\"Seed out of range.\");\n        seedsOfferedForSale[seedValue] = Offer(\n            false,\n            seedValue,\n            msg.sender,\n            0,\n            address(0)\n        );\n        emit SeedNoLongerForSale(seedValue);\n    }\n\n    function offerSeedForSale(int32 seedValue, uint256 minSalePriceInWei)\n    public\n    {\n        // if (!allSeedsAssigned) revert();\n        if (seedValueToAddress[seedValue] != msg.sender) revert(\"Sender is not owner of seed.\");\n        if (isSeedValid(seedValue) == false)\n            revert(\"Seed out of range.\");\n        seedsOfferedForSale[seedValue] = Offer(\n            true,\n            seedValue,\n            msg.sender,\n            minSalePriceInWei,\n            address(0)\n        );\n        emit SeedOffered(seedValue, minSalePriceInWei, address(0));\n    }\n\n    function offerSeedForSaleToAddress(\n        int32 seedValue,\n        uint256 minSalePriceInWei,\n        address toAddress\n    ) private {\n        if (!allSeedsAssigned) revert();\n        if (seedValueToAddress[seedValue] != msg.sender) revert();\n        if (isSeedValid(seedValue) == false)\n            revert(\"Seed out of range.\");\n        seedsOfferedForSale[seedValue] = Offer(\n            true,\n            seedValue,\n            msg.sender,\n            minSalePriceInWei,\n            toAddress\n        );\n        emit SeedOffered(seedValue, minSalePriceInWei, toAddress);\n    }\n\n    function buySeed(int32 seedValue) public payable {\n        if (!allSeedsAssigned) revert(\"All seeds assigned.\");\n        Offer memory offer = seedsOfferedForSale[seedValue];\n        if (isSeedValid(seedValue) == false)\n            revert(\"Seed out of range.\");\n        if (!offer.isForSale) revert(\"Not for sale\"); // seed not actually for sale\n        if (offer.onlySellTo != address(0) && offer.onlySellTo != msg.sender)\n            revert(\"seed not supposed to be sold\"); // seed not supposed to be sold to this user\n        if (msg.value < offer.minValue) revert(\"Money offered not enough.\"); // Didn't send enough ETH\n        if (offer.seller != seedValueToAddress[seedValue]) revert(); // Seller no longer owner of seed\n\n        address seller = offer.seller;\n\n        seedValueToAddress[seedValue] = msg.sender;\n        balanceOf[seller]--;\n        balanceOf[msg.sender]++;\n        emit Transfer(seller, msg.sender, 1);\n\n        seedNoLongerForSale(seedValue);\n        pendingWithdrawals[seller] += msg.value;\n        emit SeedBought(seedValue, msg.value, seller, msg.sender);\n\n        // Check for the case where there is a bid from the new owner and refund it.\n        // Any other bid can stay in place.\n        Bid storage bid = seedBids[seedValue];\n        if (bid.bidder == msg.sender) {\n            // Kill bid and refund value\n            pendingWithdrawals[msg.sender] += bid.value;\n            seedBids[seedValue] = Bid(false, seedValue, address(0), 0);\n        }\n    }\n\n    function withdraw() public payable {\n        // if (!allSeedsAssigned) revert();\n        uint256 amount = pendingWithdrawals[msg.sender];\n        // Remember to zero the pending refund before\n        // sending to prevent re-entrancy attacks\n        pendingWithdrawals[msg.sender] = 0;\n        payable(msg.sender).transfer(amount);\n    }\n\n    function enterBidForSeed(int32 seedValue) public payable {\n        if (isSeedValid(seedValue) == false)\n            revert(\"Seed out of range.\");\n        // if (!allSeedsAssigned) revert();\n        if (seedValueToAddress[seedValue] == address(0)) revert();\n        if (seedValueToAddress[seedValue] == msg.sender) revert();\n        if (msg.value == 0) revert();\n        Bid memory existing = seedBids[seedValue];\n        if (msg.value <= existing.value) revert();\n        if (existing.value > 0) {\n            // Refund the failing bid\n            pendingWithdrawals[existing.bidder] += existing.value;\n        }\n        seedBids[seedValue] = Bid(true, seedValue, msg.sender, msg.value);\n        emit SeedBidEntered(seedValue, msg.value, msg.sender);\n    }\n\n    function acceptBidForSeed(int32 seedValue, uint256 minPrice) public {\n        if (isSeedValid(seedValue) == false)\n            revert(\"Seed out of range.\");\n        // if (!allSeedsAssigned) revert();\n        if (seedValueToAddress[seedValue] != msg.sender) revert();\n        address seller = msg.sender;\n        Bid memory bid = seedBids[seedValue];\n        if (bid.value == 0) revert();\n        if (bid.value < minPrice) revert();\n\n        seedValueToAddress[seedValue] = bid.bidder;\n        balanceOf[seller]--;\n        balanceOf[bid.bidder]++;\n        emit Transfer(seller, bid.bidder, 1);\n\n        seedsOfferedForSale[seedValue] = Offer(\n            false,\n            seedValue,\n            bid.bidder,\n            0,\n            address(0)\n        );\n        uint256 amount = bid.value;\n        seedBids[seedValue] = Bid(false, seedValue, address(0), 0);\n        pendingWithdrawals[seller] += amount;\n        emit SeedBought(seedValue, bid.value, seller, bid.bidder);\n    }\n\n    function withdrawBidForSeed(int32 seedValue) public {\n        if (isSeedValid(seedValue) == false)\n            revert(\"Seed out of range.\");\n        if (!allSeedsAssigned) revert();\n        if (seedValueToAddress[seedValue] == address(0)) revert();\n        if (seedValueToAddress[seedValue] == msg.sender) revert();\n        Bid memory bid = seedBids[seedValue];\n        if (bid.bidder != msg.sender) revert();\n        emit SeedBidWithdrawn(seedValue, bid.value, msg.sender);\n        uint256 amount = bid.value;\n        seedBids[seedValue] = Bid(false, seedValue, address(0), 0);\n        // Refund the bid money\n        payable(msg.sender).transfer(amount);\n    }\n}",
  "sourcePath": "/home/konstantin/Development/rare-seeds/RareSeedsNFT/contracts/RareSeedsMarket.sol",
  "compiler": {
    "name": "solc",
    "version": "0.7.0+commit.9e61f92b.Emscripten.clang"
  },
  "schemaVersion": "3.4.3",
  "updatedAt": "2021-09-05T09:38:03.223Z",
  "networkType": "ethereum",
  "devdoc": {
    "kind": "dev",
    "methods": {},
    "version": 1
  },
  "userdoc": {
    "kind": "user",
    "methods": {},
    "version": 1
  }
}