{
  "contractName": "RareSeedsMarket",
  "abi": [
    {
      "inputs": [],
      "stateMutability": "nonpayable",
      "type": "constructor"
    },
    {
      "anonymous": false,
      "inputs": [
        {
          "indexed": true,
          "internalType": "address",
          "name": "to",
          "type": "address"
        },
        {
          "indexed": false,
          "internalType": "int64",
          "name": "seedValue",
          "type": "int64"
        }
      ],
      "name": "Assign",
      "type": "event"
    },
    {
      "anonymous": false,
      "inputs": [
        {
          "indexed": true,
          "internalType": "int64",
          "name": "seedValue",
          "type": "int64"
        },
        {
          "indexed": false,
          "internalType": "uint256",
          "name": "value",
          "type": "uint256"
        },
        {
          "indexed": true,
          "internalType": "address",
          "name": "fromAddress",
          "type": "address"
        }
      ],
      "name": "SeedBidEntered",
      "type": "event"
    },
    {
      "anonymous": false,
      "inputs": [
        {
          "indexed": true,
          "internalType": "int64",
          "name": "seedValue",
          "type": "int64"
        },
        {
          "indexed": false,
          "internalType": "uint256",
          "name": "value",
          "type": "uint256"
        },
        {
          "indexed": true,
          "internalType": "address",
          "name": "fromAddress",
          "type": "address"
        }
      ],
      "name": "SeedBidWithdrawn",
      "type": "event"
    },
    {
      "anonymous": false,
      "inputs": [
        {
          "indexed": true,
          "internalType": "int64",
          "name": "seedValue",
          "type": "int64"
        },
        {
          "indexed": false,
          "internalType": "uint256",
          "name": "value",
          "type": "uint256"
        },
        {
          "indexed": true,
          "internalType": "address",
          "name": "fromAddress",
          "type": "address"
        },
        {
          "indexed": true,
          "internalType": "address",
          "name": "toAddress",
          "type": "address"
        }
      ],
      "name": "SeedBought",
      "type": "event"
    },
    {
      "anonymous": false,
      "inputs": [
        {
          "indexed": true,
          "internalType": "int64",
          "name": "seedValue",
          "type": "int64"
        }
      ],
      "name": "SeedNoLongerForSale",
      "type": "event"
    },
    {
      "anonymous": false,
      "inputs": [
        {
          "indexed": true,
          "internalType": "int64",
          "name": "seedValue",
          "type": "int64"
        },
        {
          "indexed": false,
          "internalType": "uint256",
          "name": "minValue",
          "type": "uint256"
        },
        {
          "indexed": true,
          "internalType": "address",
          "name": "toAddress",
          "type": "address"
        }
      ],
      "name": "SeedOffered",
      "type": "event"
    },
    {
      "anonymous": false,
      "inputs": [
        {
          "indexed": true,
          "internalType": "address",
          "name": "from",
          "type": "address"
        },
        {
          "indexed": true,
          "internalType": "address",
          "name": "to",
          "type": "address"
        },
        {
          "indexed": false,
          "internalType": "int64",
          "name": "seedValue",
          "type": "int64"
        }
      ],
      "name": "SeedTransfer",
      "type": "event"
    },
    {
      "anonymous": false,
      "inputs": [
        {
          "indexed": true,
          "internalType": "address",
          "name": "from",
          "type": "address"
        },
        {
          "indexed": true,
          "internalType": "address",
          "name": "to",
          "type": "address"
        },
        {
          "indexed": false,
          "internalType": "uint256",
          "name": "value",
          "type": "uint256"
        }
      ],
      "name": "Transfer",
      "type": "event"
    },
    {
      "inputs": [],
      "name": "allSeedsAssigned",
      "outputs": [
        {
          "internalType": "bool",
          "name": "",
          "type": "bool"
        }
      ],
      "stateMutability": "view",
      "type": "function",
      "constant": true
    },
    {
      "inputs": [
        {
          "internalType": "address",
          "name": "",
          "type": "address"
        }
      ],
      "name": "balanceOf",
      "outputs": [
        {
          "internalType": "uint256",
          "name": "",
          "type": "uint256"
        }
      ],
      "stateMutability": "view",
      "type": "function",
      "constant": true
    },
    {
      "inputs": [],
      "name": "decimals",
      "outputs": [
        {
          "internalType": "uint8",
          "name": "",
          "type": "uint8"
        }
      ],
      "stateMutability": "view",
      "type": "function",
      "constant": true
    },
    {
      "inputs": [
        {
          "internalType": "uint256",
          "name": "",
          "type": "uint256"
        }
      ],
      "name": "indexToSeed",
      "outputs": [
        {
          "internalType": "int64",
          "name": "",
          "type": "int64"
        }
      ],
      "stateMutability": "view",
      "type": "function",
      "constant": true
    },
    {
      "inputs": [],
      "name": "maxSeed",
      "outputs": [
        {
          "internalType": "int64",
          "name": "",
          "type": "int64"
        }
      ],
      "stateMutability": "view",
      "type": "function",
      "constant": true
    },
    {
      "inputs": [],
      "name": "minSeed",
      "outputs": [
        {
          "internalType": "int64",
          "name": "",
          "type": "int64"
        }
      ],
      "stateMutability": "view",
      "type": "function",
      "constant": true
    },
    {
      "inputs": [],
      "name": "mintFee",
      "outputs": [
        {
          "internalType": "uint256",
          "name": "",
          "type": "uint256"
        }
      ],
      "stateMutability": "view",
      "type": "function",
      "constant": true
    },
    {
      "inputs": [],
      "name": "name",
      "outputs": [
        {
          "internalType": "string",
          "name": "",
          "type": "string"
        }
      ],
      "stateMutability": "view",
      "type": "function",
      "constant": true
    },
    {
      "inputs": [
        {
          "internalType": "address",
          "name": "",
          "type": "address"
        }
      ],
      "name": "pendingWithdrawals",
      "outputs": [
        {
          "internalType": "uint256",
          "name": "",
          "type": "uint256"
        }
      ],
      "stateMutability": "view",
      "type": "function",
      "constant": true
    },
    {
      "inputs": [
        {
          "internalType": "int64",
          "name": "",
          "type": "int64"
        }
      ],
      "name": "seedBids",
      "outputs": [
        {
          "internalType": "bool",
          "name": "hasBid",
          "type": "bool"
        },
        {
          "internalType": "int64",
          "name": "seedValue",
          "type": "int64"
        },
        {
          "internalType": "address",
          "name": "bidder",
          "type": "address"
        },
        {
          "internalType": "uint256",
          "name": "value",
          "type": "uint256"
        }
      ],
      "stateMutability": "view",
      "type": "function",
      "constant": true
    },
    {
      "inputs": [],
      "name": "seedIndex",
      "outputs": [
        {
          "internalType": "uint256",
          "name": "",
          "type": "uint256"
        }
      ],
      "stateMutability": "view",
      "type": "function",
      "constant": true
    },
    {
      "inputs": [
        {
          "internalType": "int64",
          "name": "",
          "type": "int64"
        }
      ],
      "name": "seedValueToAddress",
      "outputs": [
        {
          "internalType": "address",
          "name": "",
          "type": "address"
        }
      ],
      "stateMutability": "view",
      "type": "function",
      "constant": true
    },
    {
      "inputs": [
        {
          "internalType": "int64",
          "name": "",
          "type": "int64"
        }
      ],
      "name": "seedValueToWorldName",
      "outputs": [
        {
          "internalType": "string",
          "name": "",
          "type": "string"
        }
      ],
      "stateMutability": "view",
      "type": "function",
      "constant": true
    },
    {
      "inputs": [
        {
          "internalType": "int64",
          "name": "",
          "type": "int64"
        }
      ],
      "name": "seedsOfferedForSale",
      "outputs": [
        {
          "internalType": "bool",
          "name": "isForSale",
          "type": "bool"
        },
        {
          "internalType": "int64",
          "name": "seedValue",
          "type": "int64"
        },
        {
          "internalType": "address",
          "name": "seller",
          "type": "address"
        },
        {
          "internalType": "uint256",
          "name": "minValue",
          "type": "uint256"
        },
        {
          "internalType": "address",
          "name": "onlySellTo",
          "type": "address"
        }
      ],
      "stateMutability": "view",
      "type": "function",
      "constant": true
    },
    {
      "inputs": [],
      "name": "seedsRemainingToAssign",
      "outputs": [
        {
          "internalType": "uint256",
          "name": "",
          "type": "uint256"
        }
      ],
      "stateMutability": "view",
      "type": "function",
      "constant": true
    },
    {
      "inputs": [],
      "name": "standard",
      "outputs": [
        {
          "internalType": "string",
          "name": "",
          "type": "string"
        }
      ],
      "stateMutability": "view",
      "type": "function",
      "constant": true
    },
    {
      "inputs": [],
      "name": "symbol",
      "outputs": [
        {
          "internalType": "string",
          "name": "",
          "type": "string"
        }
      ],
      "stateMutability": "view",
      "type": "function",
      "constant": true
    },
    {
      "inputs": [],
      "name": "totalSupply",
      "outputs": [
        {
          "internalType": "uint256",
          "name": "",
          "type": "uint256"
        }
      ],
      "stateMutability": "view",
      "type": "function",
      "constant": true
    },
    {
      "inputs": [
        {
          "internalType": "int64",
          "name": "seedValue",
          "type": "int64"
        },
        {
          "internalType": "string",
          "name": "worldName",
          "type": "string"
        }
      ],
      "name": "getSeed",
      "outputs": [],
      "stateMutability": "payable",
      "type": "function",
      "payable": true
    },
    {
      "inputs": [
        {
          "internalType": "int64",
          "name": "seedValue",
          "type": "int64"
        },
        {
          "internalType": "uint256",
          "name": "minSalePriceInWei",
          "type": "uint256"
        }
      ],
      "name": "offerSeedForSale",
      "outputs": [],
      "stateMutability": "nonpayable",
      "type": "function"
    },
    {
      "inputs": [
        {
          "internalType": "int64",
          "name": "seedValue",
          "type": "int64"
        }
      ],
      "name": "buySeed",
      "outputs": [],
      "stateMutability": "payable",
      "type": "function",
      "payable": true
    },
    {
      "inputs": [],
      "name": "withdraw",
      "outputs": [],
      "stateMutability": "payable",
      "type": "function",
      "payable": true
    },
    {
      "inputs": [
        {
          "internalType": "int64",
          "name": "seedValue",
          "type": "int64"
        }
      ],
      "name": "enterBidForSeed",
      "outputs": [],
      "stateMutability": "payable",
      "type": "function",
      "payable": true
    },
    {
      "inputs": [
        {
          "internalType": "int64",
          "name": "seedValue",
          "type": "int64"
        },
        {
          "internalType": "uint256",
          "name": "minPrice",
          "type": "uint256"
        }
      ],
      "name": "acceptBidForSeed",
      "outputs": [],
      "stateMutability": "nonpayable",
      "type": "function"
    },
    {
      "inputs": [
        {
          "internalType": "int64",
          "name": "seedValue",
          "type": "int64"
        }
      ],
      "name": "withdrawBidForSeed",
      "outputs": [],
      "stateMutability": "nonpayable",
      "type": "function"
    }
  ],
  "bytecode": "0x60806040526040518060400160405280600981526020017f5261726553656564730000000000000000000000000000000000000000000000815250600190805190602001906200005192919062000223565b50677fffffffffffffff600760006101000a81548167ffffffffffffffff021916908360070b67ffffffffffffffff1602179055507fffffffffffffffffffffffffffffffffffffffffffffffff8000000000000000600760086101000a81548167ffffffffffffffff021916908360070b67ffffffffffffffff1602179055506000600760106101000a81548160ff0219169083151502179055506000600855660aa87bee5380006009553480156200010a57600080fd5b50336000806101000a81548173ffffffffffffffffffffffffffffffffffffffff021916908373ffffffffffffffffffffffffffffffffffffffff1602179055506102006005819055506005546008819055506040518060400160405280600981526020017f524152455345454453000000000000000000000000000000000000000000000081525060029080519060200190620001aa92919062000223565b506040518060400160405280600381526020017f525358000000000000000000000000000000000000000000000000000000000081525060039080519060200190620001f892919062000223565b506000600460006101000a81548160ff021916908360ff1602179055506000600681905550620002c9565b828054600181600116156101000203166002900490600052602060002090601f016020900481019282601f106200026657805160ff191683800117855562000297565b8280016001018555821562000297579182015b828111156200029657825182559160200191906001019062000279565b5b509050620002a69190620002aa565b5090565b5b80821115620002c5576000816000905550600101620002ab565b5090565b6132e280620002d96000396000f3fe6080604052600436106101665760003560e01c8063448f26d2116100d1578063ae497f3f1161008a578063d353026f11610064578063d353026f146108c7578063de34ddf1146108f8578063f3f437031461094a578063f4b79200146109af57610166565b8063ae497f3f146107a3578063ca921631146107d1578063d24408fb146107ff57610166565b8063448f26d21461053d5780634559f6011461056e5780635a3b7e42146105b657806370a082311461064657806395d89b41146106ab57806397c543391461073b57610166565b80631889f737116101235780631889f737146103595780631d339145146103db5780632b20058214610492578063313ce567146104da5780633ccfd60b146105085780633f24fb9c1461051257610166565b806306fdde031461016b57806307b96bcc146101fb5780630fa235261461022657806313966db5146102c557806316909d40146102f057806318160ddd1461032e575b600080fd5b34801561017757600080fd5b506101806109dc565b6040518080602001828103825283818151815260200191508051906020019080838360005b838110156101c05780820151818401526020810190506101a5565b50505050905090810190601f1680156101ed5780820380516001836020036101000a031916815260200191505b509250505060405180910390f35b34801561020757600080fd5b50610210610a7a565b6040518082815260200191505060405180910390f35b34801561023257600080fd5b506102626004803603602081101561024957600080fd5b81019080803560070b9060200190929190505050610a80565b6040518086151581526020018560070b81526020018473ffffffffffffffffffffffffffffffffffffffff1681526020018381526020018273ffffffffffffffffffffffffffffffffffffffff1681526020019550505050505060405180910390f35b3480156102d157600080fd5b506102da610b10565b6040518082815260200191505060405180910390f35b3480156102fc57600080fd5b5061032c6004803603602081101561031357600080fd5b81019080803560070b9060200190929190505050610b16565b005b34801561033a57600080fd5b50610343610f42565b6040518082815260200191505060405180910390f35b34801561036557600080fd5b506103956004803603602081101561037c57600080fd5b81019080803560070b9060200190929190505050610f48565b6040518085151581526020018460070b81526020018373ffffffffffffffffffffffffffffffffffffffff16815260200182815260200194505050505060405180910390f35b3480156103e757600080fd5b50610417600480360360208110156103fe57600080fd5b81019080803560070b9060200190929190505050610fb2565b6040518080602001828103825283818151815260200191508051906020019080838360005b8381101561045757808201518184015260208101905061043c565b50505050905090810190601f1680156104845780820380516001836020036101000a031916815260200191505b509250505060405180910390f35b34801561049e57600080fd5b506104d8600480360360408110156104b557600080fd5b81019080803560070b906020019092919080359060200190929190505050611062565b005b3480156104e657600080fd5b506104ef611376565b604051808260ff16815260200191505060405180910390f35b610510611389565b005b34801561051e57600080fd5b5061052761145c565b6040518082815260200191505060405180910390f35b61056c6004803603602081101561055357600080fd5b81019080803560070b9060200190929190505050611462565b005b34801561057a57600080fd5b506105b46004803603604081101561059157600080fd5b81019080803560070b906020019092919080359060200190929190505050611863565b005b3480156105c257600080fd5b506105cb611edf565b6040518080602001828103825283818151815260200191508051906020019080838360005b8381101561060b5780820151818401526020810190506105f0565b50505050905090810190601f1680156106385780820380516001836020036101000a031916815260200191505b509250505060405180910390f35b34801561065257600080fd5b506106956004803603602081101561066957600080fd5b81019080803573ffffffffffffffffffffffffffffffffffffffff169060200190929190505050611f7d565b6040518082815260200191505060405180910390f35b3480156106b757600080fd5b506106c0611f95565b6040518080602001828103825283818151815260200191508051906020019080838360005b838110156107005780820151818401526020810190506106e5565b50505050905090810190601f16801561072d5780820380516001836020036101000a031916815260200191505b509250505060405180910390f35b34801561074757600080fd5b506107776004803603602081101561075e57600080fd5b81019080803560070b9060200190929190505050612033565b604051808273ffffffffffffffffffffffffffffffffffffffff16815260200191505060405180910390f35b3480156107af57600080fd5b506107b8612066565b604051808260070b815260200191505060405180910390f35b3480156107dd57600080fd5b506107e6612079565b604051808260070b815260200191505060405180910390f35b6108c56004803603604081101561081557600080fd5b81019080803560070b90602001909291908035906020019064010000000081111561083f57600080fd5b82018360208201111561085157600080fd5b8035906020019184600183028401116401000000008311171561087357600080fd5b91908080601f016020809104026020016040519081016040528093929190818152602001838380828437600081840152601f19601f82011690508083019250505050505050919291929050505061208c565b005b6108f6600480360360208110156108dd57600080fd5b81019080803560070b90602001909291905050506125d4565b005b34801561090457600080fd5b506109316004803603602081101561091b57600080fd5b8101908080359060200190929190505050612e2f565b604051808260070b815260200191505060405180910390f35b34801561095657600080fd5b506109996004803603602081101561096d57600080fd5b81019080803573ffffffffffffffffffffffffffffffffffffffff169060200190929190505050612e4f565b6040518082815260200191505060405180910390f35b3480156109bb57600080fd5b506109c4612e67565b60405180821515815260200191505060405180910390f35b60028054600181600116156101000203166002900480601f016020809104026020016040519081016040528092919081815260200182805460018160011615610100020316600290048015610a725780601f10610a4757610100808354040283529160200191610a72565b820191906000526020600020905b815481529060010190602001808311610a5557829003601f168201915b505050505081565b60085481565b600e6020528060005260406000206000915090508060000160009054906101000a900460ff16908060000160019054906101000a900460070b908060000160099054906101000a900473ffffffffffffffffffffffffffffffffffffffff16908060010154908060020160009054906101000a900473ffffffffffffffffffffffffffffffffffffffff16905085565b60095481565b60001515610b2382612e7a565b15151415610b99576040517f08c379a00000000000000000000000000000000000000000000000000000000081526004018080602001828103825260128152602001807f53656564206f7574206f662072616e67652e000000000000000000000000000081525060200191505060405180910390fd5b600760109054906101000a900460ff16610bb257600080fd5b600073ffffffffffffffffffffffffffffffffffffffff16600a60008360070b60070b815260200190815260200160002060009054906101000a900473ffffffffffffffffffffffffffffffffffffffff1673ffffffffffffffffffffffffffffffffffffffff161415610c2557600080fd5b3373ffffffffffffffffffffffffffffffffffffffff16600a60008360070b60070b815260200190815260200160002060009054906101000a900473ffffffffffffffffffffffffffffffffffffffff1673ffffffffffffffffffffffffffffffffffffffff161415610c9757600080fd5b610c9f61316c565b600f60008360070b60070b81526020019081526020016000206040518060800160405290816000820160009054906101000a900460ff161515151581526020016000820160019054906101000a900460070b60070b60070b81526020016000820160099054906101000a900473ffffffffffffffffffffffffffffffffffffffff1673ffffffffffffffffffffffffffffffffffffffff1673ffffffffffffffffffffffffffffffffffffffff16815260200160018201548152505090503373ffffffffffffffffffffffffffffffffffffffff16816040015173ffffffffffffffffffffffffffffffffffffffff1614610d9957600080fd5b3373ffffffffffffffffffffffffffffffffffffffff168260070b7f2ec72c00cd51b98f9b1ad4bc570f226381277c048b0cea45c4e3f1fbbdcb24fe83606001516040518082815260200191505060405180910390a360008160600151905060405180608001604052806000151581526020018460070b8152602001600073ffffffffffffffffffffffffffffffffffffffff1681526020016000815250600f60008560070b60070b815260200190815260200160002060008201518160000160006101000a81548160ff02191690831515021790555060208201518160000160016101000a81548167ffffffffffffffff021916908360070b67ffffffffffffffff16021790555060408201518160000160096101000a81548173ffffffffffffffffffffffffffffffffffffffff021916908373ffffffffffffffffffffffffffffffffffffffff160217905550606082015181600101559050503373ffffffffffffffffffffffffffffffffffffffff166108fc829081150290604051600060405180830381858888f19350505050158015610f3c573d6000803e3d6000fd5b50505050565b60055481565b600f6020528060005260406000206000915090508060000160009054906101000a900460ff16908060000160019054906101000a900460070b908060000160099054906101000a900473ffffffffffffffffffffffffffffffffffffffff16908060010154905084565b600b6020528060005260406000206000915090508054600181600116156101000203166002900480601f01602080910402602001604051908101604052809291908181526020018280546001816001161561010002031660029004801561105a5780601f1061102f5761010080835404028352916020019161105a565b820191906000526020600020905b81548152906001019060200180831161103d57829003601f168201915b505050505081565b3373ffffffffffffffffffffffffffffffffffffffff16600a60008460070b60070b815260200190815260200160002060009054906101000a900473ffffffffffffffffffffffffffffffffffffffff1673ffffffffffffffffffffffffffffffffffffffff161461113c576040517f08c379a000000000000000000000000000000000000000000000000000000000815260040180806020018281038252601c8152602001807f53656e646572206973206e6f74206f776e6572206f6620736565642e0000000081525060200191505060405180910390fd5b6000151561114983612e7a565b151514156111bf576040517f08c379a00000000000000000000000000000000000000000000000000000000081526004018080602001828103825260128152602001807f53656564206f7574206f662072616e67652e000000000000000000000000000081525060200191505060405180910390fd5b6040518060a001604052806001151581526020018360070b81526020013373ffffffffffffffffffffffffffffffffffffffff168152602001828152602001600073ffffffffffffffffffffffffffffffffffffffff16815250600e60008460070b60070b815260200190815260200160002060008201518160000160006101000a81548160ff02191690831515021790555060208201518160000160016101000a81548167ffffffffffffffff021916908360070b67ffffffffffffffff16021790555060408201518160000160096101000a81548173ffffffffffffffffffffffffffffffffffffffff021916908373ffffffffffffffffffffffffffffffffffffffff1602179055506060820151816001015560808201518160020160006101000a81548173ffffffffffffffffffffffffffffffffffffffff021916908373ffffffffffffffffffffffffffffffffffffffff160217905550905050600073ffffffffffffffffffffffffffffffffffffffff168260070b7ffaddffbee2fb78f6feddf87f1632a4d45572e2e4ba758ec5d6c752af0243d1aa836040518082815260200191505060405180910390a35050565b600460009054906101000a900460ff1681565b6000601060003373ffffffffffffffffffffffffffffffffffffffff1673ffffffffffffffffffffffffffffffffffffffff1681526020019081526020016000205490506000601060003373ffffffffffffffffffffffffffffffffffffffff1673ffffffffffffffffffffffffffffffffffffffff168152602001908152602001600020819055503373ffffffffffffffffffffffffffffffffffffffff166108fc829081150290604051600060405180830381858888f19350505050158015611458573d6000803e3d6000fd5b5050565b60065481565b6000151561146f82612e7a565b151514156114e5576040517f08c379a00000000000000000000000000000000000000000000000000000000081526004018080602001828103825260128152602001807f53656564206f7574206f662072616e67652e000000000000000000000000000081525060200191505060405180910390fd5b600073ffffffffffffffffffffffffffffffffffffffff16600a60008360070b60070b815260200190815260200160002060009054906101000a900473ffffffffffffffffffffffffffffffffffffffff1673ffffffffffffffffffffffffffffffffffffffff16141561155857600080fd5b3373ffffffffffffffffffffffffffffffffffffffff16600a60008360070b60070b815260200190815260200160002060009054906101000a900473ffffffffffffffffffffffffffffffffffffffff1673ffffffffffffffffffffffffffffffffffffffff1614156115ca57600080fd5b60003414156115d857600080fd5b6115e061316c565b600f60008360070b60070b81526020019081526020016000206040518060800160405290816000820160009054906101000a900460ff161515151581526020016000820160019054906101000a900460070b60070b60070b81526020016000820160099054906101000a900473ffffffffffffffffffffffffffffffffffffffff1673ffffffffffffffffffffffffffffffffffffffff1673ffffffffffffffffffffffffffffffffffffffff1681526020016001820154815250509050806060015134116116ae57600080fd5b60008160600151111561171157806060015160106000836040015173ffffffffffffffffffffffffffffffffffffffff1673ffffffffffffffffffffffffffffffffffffffff168152602001908152602001600020600082825401925050819055505b60405180608001604052806001151581526020018360070b81526020013373ffffffffffffffffffffffffffffffffffffffff16815260200134815250600f60008460070b60070b815260200190815260200160002060008201518160000160006101000a81548160ff02191690831515021790555060208201518160000160016101000a81548167ffffffffffffffff021916908360070b67ffffffffffffffff16021790555060408201518160000160096101000a81548173ffffffffffffffffffffffffffffffffffffffff021916908373ffffffffffffffffffffffffffffffffffffffff160217905550606082015181600101559050503373ffffffffffffffffffffffffffffffffffffffff168260070b7f070500a84b87f9fcb83dedc07adac5028d7ba727c0fa64d4b29c849aad1140bd346040518082815260200191505060405180910390a35050565b6000151561187083612e7a565b151514156118e6576040517f08c379a00000000000000000000000000000000000000000000000000000000081526004018080602001828103825260128152602001807f53656564206f7574206f662072616e67652e000000000000000000000000000081525060200191505060405180910390fd5b3373ffffffffffffffffffffffffffffffffffffffff16600a60008460070b60070b815260200190815260200160002060009054906101000a900473ffffffffffffffffffffffffffffffffffffffff1673ffffffffffffffffffffffffffffffffffffffff161461195757600080fd5b600033905061196461316c565b600f60008560070b60070b81526020019081526020016000206040518060800160405290816000820160009054906101000a900460ff161515151581526020016000820160019054906101000a900460070b60070b60070b81526020016000820160099054906101000a900473ffffffffffffffffffffffffffffffffffffffff1673ffffffffffffffffffffffffffffffffffffffff1673ffffffffffffffffffffffffffffffffffffffff1681526020016001820154815250509050600081606001511415611a3457600080fd5b8281606001511015611a4557600080fd5b8060400151600a60008660070b60070b815260200190815260200160002060006101000a81548173ffffffffffffffffffffffffffffffffffffffff021916908373ffffffffffffffffffffffffffffffffffffffff160217905550600c60008373ffffffffffffffffffffffffffffffffffffffff1673ffffffffffffffffffffffffffffffffffffffff1681526020019081526020016000206000815480929190600190039190505550600c6000826040015173ffffffffffffffffffffffffffffffffffffffff1673ffffffffffffffffffffffffffffffffffffffff16815260200190815260200160002060008154809291906001019190505550806040015173ffffffffffffffffffffffffffffffffffffffff168273ffffffffffffffffffffffffffffffffffffffff167fddf252ad1be2c89b69c2b068fc378daa952ba7f163c4a11628f55a4df523b3ef60016040518082815260200191505060405180910390a36040518060a001604052806000151581526020018560070b8152602001826040015173ffffffffffffffffffffffffffffffffffffffff16815260200160008152602001600073ffffffffffffffffffffffffffffffffffffffff16815250600e60008660070b60070b815260200190815260200160002060008201518160000160006101000a81548160ff02191690831515021790555060208201518160000160016101000a81548167ffffffffffffffff021916908360070b67ffffffffffffffff16021790555060408201518160000160096101000a81548173ffffffffffffffffffffffffffffffffffffffff021916908373ffffffffffffffffffffffffffffffffffffffff1602179055506060820151816001015560808201518160020160006101000a81548173ffffffffffffffffffffffffffffffffffffffff021916908373ffffffffffffffffffffffffffffffffffffffff16021790555090505060008160600151905060405180608001604052806000151581526020018660070b8152602001600073ffffffffffffffffffffffffffffffffffffffff1681526020016000815250600f60008760070b60070b815260200190815260200160002060008201518160000160006101000a81548160ff02191690831515021790555060208201518160000160016101000a81548167ffffffffffffffff021916908360070b67ffffffffffffffff16021790555060408201518160000160096101000a81548173ffffffffffffffffffffffffffffffffffffffff021916908373ffffffffffffffffffffffffffffffffffffffff1602179055506060820151816001015590505080601060008573ffffffffffffffffffffffffffffffffffffffff1673ffffffffffffffffffffffffffffffffffffffff16815260200190815260200160002060008282540192505081905550816040015173ffffffffffffffffffffffffffffffffffffffff168373ffffffffffffffffffffffffffffffffffffffff168660070b7f0964354c3835b8c61ea26066f544784910f15e649e1e6e14298cf86edb03d9a785606001516040518082815260200191505060405180910390a45050505050565b60018054600181600116156101000203166002900480601f016020809104026020016040519081016040528092919081815260200182805460018160011615610100020316600290048015611f755780601f10611f4a57610100808354040283529160200191611f75565b820191906000526020600020905b815481529060010190602001808311611f5857829003601f168201915b505050505081565b600c6020528060005260406000206000915090505481565b60038054600181600116156101000203166002900480601f01602080910402602001604051908101604052809291908181526020018280546001816001161561010002031660029004801561202b5780601f106120005761010080835404028352916020019161202b565b820191906000526020600020905b81548152906001019060200180831161200e57829003601f168201915b505050505081565b600a6020528060005260406000206000915054906101000a900473ffffffffffffffffffffffffffffffffffffffff1681565b600760009054906101000a900460070b81565b600760089054906101000a900460070b81565b600760109054906101000a900460ff161561210f576040517f08c379a00000000000000000000000000000000000000000000000000000000081526004018080602001828103825260138152602001807f416c6c2073656564732061737369676e65642e0000000000000000000000000081525060200191505060405180910390fd5b60006008541415612188576040517f08c379a00000000000000000000000000000000000000000000000000000000081526004018080602001828103825260138152602001807f6e6f2073656564732072656d61696e696e672e0000000000000000000000000081525060200191505060405180910390fd5b6005546006541115612202576040517f08c379a00000000000000000000000000000000000000000000000000000000081526004018080602001828103825260188152602001807f6e6f206d6f72652073656564732072656d61696e696e672e000000000000000081525060200191505060405180910390fd5b6000151561220f83612e7a565b15151415612285576040517f08c379a00000000000000000000000000000000000000000000000000000000081526004018080602001828103825260128152602001807f53656564206f7574206f662072616e67652e000000000000000000000000000081525060200191505060405180910390fd5b600073ffffffffffffffffffffffffffffffffffffffff16600a60008460070b60070b815260200190815260200160002060009054906101000a900473ffffffffffffffffffffffffffffffffffffffff1673ffffffffffffffffffffffffffffffffffffffff1614612360576040517f08c379a000000000000000000000000000000000000000000000000000000000815260040180806020018281038252600e8152602001807f416c72656164792074616b656e2e00000000000000000000000000000000000081525060200191505060405180910390fd5b6009543410156123d8576040517f08c379a000000000000000000000000000000000000000000000000000000000815260040180806020018281038252601d8152602001807f4e6f7420656e6f756768206d696e74206665657320737570706c69656400000081525060200191505060405180910390fd5b33600a60008460070b60070b815260200190815260200160002060006101000a81548173ffffffffffffffffffffffffffffffffffffffff021916908373ffffffffffffffffffffffffffffffffffffffff16021790555080600b60008460070b60070b8152602001908152602001600020908051906020019061245d9291906131af565b50600c60003373ffffffffffffffffffffffffffffffffffffffff1673ffffffffffffffffffffffffffffffffffffffff168152602001908152602001600020600081548092919060010191905055506008600081548092919060019003919050555060066000815480929190600101919050555081600d6000600654815260200190815260200160002060006101000a81548167ffffffffffffffff021916908360070b67ffffffffffffffff16021790555034601060008060009054906101000a900473ffffffffffffffffffffffffffffffffffffffff1673ffffffffffffffffffffffffffffffffffffffff1673ffffffffffffffffffffffffffffffffffffffff168152602001908152602001600020600082825401925050819055503373ffffffffffffffffffffffffffffffffffffffff167f89f1718a410b370367ee80353ee1a8a86c5f138470ecad5f96c73e4bd0719f5083604051808260070b815260200191505060405180910390a25050565b600760109054906101000a900460ff16612656576040517f08c379a00000000000000000000000000000000000000000000000000000000081526004018080602001828103825260138152602001807f416c6c2073656564732061737369676e65642e0000000000000000000000000081525060200191505060405180910390fd5b61265e61322f565b600e60008360070b60070b81526020019081526020016000206040518060a00160405290816000820160009054906101000a900460ff161515151581526020016000820160019054906101000a900460070b60070b60070b81526020016000820160099054906101000a900473ffffffffffffffffffffffffffffffffffffffff1673ffffffffffffffffffffffffffffffffffffffff1673ffffffffffffffffffffffffffffffffffffffff168152602001600182015481526020016002820160009054906101000a900473ffffffffffffffffffffffffffffffffffffffff1673ffffffffffffffffffffffffffffffffffffffff1673ffffffffffffffffffffffffffffffffffffffff168152505090506000151561277f83612e7a565b151514156127f5576040517f08c379a00000000000000000000000000000000000000000000000000000000081526004018080602001828103825260128152602001807f53656564206f7574206f662072616e67652e000000000000000000000000000081525060200191505060405180910390fd5b806000015161286c576040517f08c379a000000000000000000000000000000000000000000000000000000000815260040180806020018281038252600c8152602001807f4e6f7420666f722073616c65000000000000000000000000000000000000000081525060200191505060405180910390fd5b600073ffffffffffffffffffffffffffffffffffffffff16816080015173ffffffffffffffffffffffffffffffffffffffff16141580156128dd57503373ffffffffffffffffffffffffffffffffffffffff16816080015173ffffffffffffffffffffffffffffffffffffffff1614155b15612950576040517f08c379a000000000000000000000000000000000000000000000000000000000815260040180806020018281038252601c8152602001807f73656564206e6f7420737570706f73656420746f20626520736f6c640000000081525060200191505060405180910390fd5b80606001513410156129ca576040517f08c379a00000000000000000000000000000000000000000000000000000000081526004018080602001828103825260198152602001807f4d6f6e6579206f666665726564206e6f7420656e6f7567682e0000000000000081525060200191505060405180910390fd5b600a60008360070b60070b815260200190815260200160002060009054906101000a900473ffffffffffffffffffffffffffffffffffffffff1673ffffffffffffffffffffffffffffffffffffffff16816040015173ffffffffffffffffffffffffffffffffffffffff1614612a3f57600080fd5b60008160400151905033600a60008560070b60070b815260200190815260200160002060006101000a81548173ffffffffffffffffffffffffffffffffffffffff021916908373ffffffffffffffffffffffffffffffffffffffff160217905550600c60008273ffffffffffffffffffffffffffffffffffffffff1673ffffffffffffffffffffffffffffffffffffffff1681526020019081526020016000206000815480929190600190039190505550600c60003373ffffffffffffffffffffffffffffffffffffffff1673ffffffffffffffffffffffffffffffffffffffff168152602001908152602001600020600081548092919060010191905055503373ffffffffffffffffffffffffffffffffffffffff168173ffffffffffffffffffffffffffffffffffffffff167fddf252ad1be2c89b69c2b068fc378daa952ba7f163c4a11628f55a4df523b3ef60016040518082815260200191505060405180910390a3612bae83612ecb565b34601060008373ffffffffffffffffffffffffffffffffffffffff1673ffffffffffffffffffffffffffffffffffffffff168152602001908152602001600020600082825401925050819055503373ffffffffffffffffffffffffffffffffffffffff168173ffffffffffffffffffffffffffffffffffffffff168460070b7f0964354c3835b8c61ea26066f544784910f15e649e1e6e14298cf86edb03d9a7346040518082815260200191505060405180910390a46000600f60008560070b60070b815260200190815260200160002090503373ffffffffffffffffffffffffffffffffffffffff168160000160099054906101000a900473ffffffffffffffffffffffffffffffffffffffff1673ffffffffffffffffffffffffffffffffffffffff161415612e29578060010154601060003373ffffffffffffffffffffffffffffffffffffffff1673ffffffffffffffffffffffffffffffffffffffff1681526020019081526020016000206000828254019250508190555060405180608001604052806000151581526020018560070b8152602001600073ffffffffffffffffffffffffffffffffffffffff1681526020016000815250600f60008660070b60070b815260200190815260200160002060008201518160000160006101000a81548160ff02191690831515021790555060208201518160000160016101000a81548167ffffffffffffffff021916908360070b67ffffffffffffffff16021790555060408201518160000160096101000a81548173ffffffffffffffffffffffffffffffffffffffff021916908373ffffffffffffffffffffffffffffffffffffffff160217905550606082015181600101559050505b50505050565b600d6020528060005260406000206000915054906101000a900460070b81565b60106020528060005260406000206000915090505481565b600760109054906101000a900460ff1681565b6000600760009054906101000a900460070b60070b8260070b131580612eb55750600760089054906101000a900460070b60070b8260070b12155b80612ec4575060008260070b14155b9050919050565b600760109054906101000a900460ff16612ee457600080fd5b3373ffffffffffffffffffffffffffffffffffffffff16600a60008360070b60070b815260200190815260200160002060009054906101000a900473ffffffffffffffffffffffffffffffffffffffff1673ffffffffffffffffffffffffffffffffffffffff1614612f5557600080fd5b60001515612f6282612e7a565b15151415612fd8576040517f08c379a00000000000000000000000000000000000000000000000000000000081526004018080602001828103825260128152602001807f53656564206f7574206f662072616e67652e000000000000000000000000000081525060200191505060405180910390fd5b6040518060a001604052806000151581526020018260070b81526020013373ffffffffffffffffffffffffffffffffffffffff16815260200160008152602001600073ffffffffffffffffffffffffffffffffffffffff16815250600e60008360070b60070b815260200190815260200160002060008201518160000160006101000a81548160ff02191690831515021790555060208201518160000160016101000a81548167ffffffffffffffff021916908360070b67ffffffffffffffff16021790555060408201518160000160096101000a81548173ffffffffffffffffffffffffffffffffffffffff021916908373ffffffffffffffffffffffffffffffffffffffff1602179055506060820151816001015560808201518160020160006101000a81548173ffffffffffffffffffffffffffffffffffffffff021916908373ffffffffffffffffffffffffffffffffffffffff1602179055509050508060070b7f9b6ce16159f21562074bb759799719af3f77e171528ec0ff25576e1ea1836ad960405160405180910390a250565b6040518060800160405280600015158152602001600060070b8152602001600073ffffffffffffffffffffffffffffffffffffffff168152602001600081525090565b828054600181600116156101000203166002900490600052602060002090601f016020900481019282601f106131f057805160ff191683800117855561321e565b8280016001018555821561321e579182015b8281111561321d578251825591602001919060010190613202565b5b50905061322b919061328f565b5090565b6040518060a00160405280600015158152602001600060070b8152602001600073ffffffffffffffffffffffffffffffffffffffff16815260200160008152602001600073ffffffffffffffffffffffffffffffffffffffff1681525090565b5b808211156132a8576000816000905550600101613290565b509056fea2646970667358221220a128dd8d0cd0a7d26d4da30354910b15fcade326982c340dfc398b4b070d857564736f6c63430007000033",
  "immutableReferences": {},
  "source": "pragma solidity >=0.7.0 <0.9.0;\n//pragma solidity >=0.4.22 <0.9.0;\n\ncontract RareSeedsMarket {\n    address owner;\n\n    string public standard = \"RareSeeds\";\n    string public name;\n    string public symbol;\n    uint8 public decimals;\n    uint256 public totalSupply;\n\n    uint256 public seedIndex;\n\n    int64 public maxSeed = 9223372036854775807;\n    int64 public minSeed = -9223372036854775808;\n\n    bool public allSeedsAssigned = false;\n    uint256 public seedsRemainingToAssign = 0;\n    uint256 public mintFee = 3000000000000000;\n\n    mapping(int64 => address) public seedValueToAddress;\n\n    mapping(int64 => string) public seedValueToWorldName;\n\n    mapping(address => uint256) public balanceOf;\n\n    mapping(uint256 => int64 ) public indexToSeed;\n\n    struct Offer {\n        bool isForSale;\n        int64 seedValue;\n        address seller;\n        uint256 minValue;\n        address onlySellTo;\n    }\n\n    struct Bid {\n        bool hasBid;\n        int64 seedValue;\n        address bidder;\n        uint256 value;\n    }\n\n    mapping(int64 => Offer) public seedsOfferedForSale;\n\n    mapping(int64 => Bid) public seedBids;\n\n    mapping(address => uint256) public pendingWithdrawals;\n\n    event Assign(address indexed to, int64 seedValue);\n\n    event Transfer(address indexed from, address indexed to, uint256 value);\n\n    event SeedTransfer(\n        address indexed from,\n        address indexed to,\n        int64 seedValue\n    );\n\n    event SeedOffered(\n        int64 indexed seedValue,\n        uint256 minValue,\n        address indexed toAddress\n    );\n\n    event SeedBidEntered(\n        int64 indexed seedValue,\n        uint256 value,\n        address indexed fromAddress\n    );\n\n    event SeedBidWithdrawn(\n        int64 indexed seedValue,\n        uint256 value,\n        address indexed fromAddress\n    );\n\n    event SeedBought(\n        int64 indexed seedValue,\n        uint256 value,\n        address indexed fromAddress,\n        address indexed toAddress\n    );\n\n    event SeedNoLongerForSale(int64 indexed seedValue);\n\n    /* Initializes contract with initial supply tokens to the creator of the contract */\n    constructor() {\n        owner = msg.sender;\n        totalSupply = 512;\n        seedsRemainingToAssign = totalSupply;\n        name = \"RARESEEDS\";\n        symbol = \"RSX\";\n        decimals = 0;\n        seedIndex = 0;\n    }\n\n    function setInitialOwner(address to, int64 seedValue) private {\n        assert(msg.sender != owner);\n        assert(allSeedsAssigned);\n        assert(seedValue >= 10000);\n        if (seedValueToAddress[seedValue] != to) {\n            balanceOf[seedValueToAddress[seedValue]]--;\n            seedValueToAddress[seedValue] = to;\n            balanceOf[to]++;\n            emit Assign(to, seedValue);\n        }\n    }\n\n    function setInitialOwners(\n        address[] calldata addresses,\n        int64[] calldata indices\n    ) private {\n        if (msg.sender != owner) revert();\n        uint256 n = addresses.length;\n        for (uint256 i = 0; i < n; i++) {\n            setInitialOwner(addresses[i], indices[i]);\n        }\n    }\n\n    function allInitialOwnersAssigned() private {\n        if (msg.sender != owner) revert();\n        allSeedsAssigned = true;\n    }\n\n    function isSeedValid(int64 seedValue) private view returns(bool) {\n        return (seedValue <= maxSeed || seedValue >= minSeed || seedValue != 0);\n    }\n\n    function getSeed(int64 seedValue, string memory worldName) public payable {\n        if (allSeedsAssigned) revert(\"All seeds assigned.\");\n        if (seedsRemainingToAssign == 0) revert(\"no seeds remaining.\");\n        if (seedIndex > totalSupply) revert(\"no more seeds remaining.\");\n        if (isSeedValid(seedValue) == false)\n            revert(\"Seed out of range.\");\n        if (seedValueToAddress[seedValue] != address(0))\n            revert(\"Already taken.\");\n        if (msg.value < mintFee) revert(\"Not enough mint fees supplied\");\n        seedValueToAddress[seedValue] = msg.sender;\n        seedValueToWorldName[seedValue] = worldName;\n        balanceOf[msg.sender]++;\n        seedsRemainingToAssign--;\n        seedIndex++;\n        indexToSeed[seedIndex] = seedValue;\n        pendingWithdrawals[owner] += msg.value;\n        emit Assign(msg.sender, seedValue);\n    }\n\n    function transferSeed(address to, int64 seedValue) private {\n        if (!allSeedsAssigned) revert();\n        if (seedValueToAddress[seedValue] != msg.sender) revert();\n        if (isSeedValid(seedValue) == false)\n            revert(\"Seed out of range.\");\n        if (seedsOfferedForSale[seedValue].isForSale) {\n            seedNoLongerForSale(seedValue);\n        }\n        seedValueToAddress[seedValue] = to;\n        balanceOf[msg.sender]--;\n        balanceOf[to]++;\n\n        emit Transfer(msg.sender, to, 1);\n        emit SeedTransfer(msg.sender, to, seedValue);\n        // Check for the case where there is a bid from the new owner and refund it.\n        // Any other bid can stay in place.\n        Bid memory bid = seedBids[seedValue];\n        if (bid.bidder == to) {\n            // Kill bid and refund value\n            pendingWithdrawals[to] += bid.value;\n            seedBids[seedValue] = Bid(false, seedValue, address(0), 0);\n        }\n    }\n\n    function seedNoLongerForSale(int64 seedValue) private {\n        if (!allSeedsAssigned) revert();\n        if (seedValueToAddress[seedValue] != msg.sender) revert();\n        if (isSeedValid(seedValue) == false)\n            revert(\"Seed out of range.\");\n        seedsOfferedForSale[seedValue] = Offer(\n            false,\n            seedValue,\n            msg.sender,\n            0,\n            address(0)\n        );\n        emit SeedNoLongerForSale(seedValue);\n    }\n\n    function offerSeedForSale(int64 seedValue, uint256 minSalePriceInWei)\n    public\n    {\n        // if (!allSeedsAssigned) revert();\n        if (seedValueToAddress[seedValue] != msg.sender) revert(\"Sender is not owner of seed.\");\n        if (isSeedValid(seedValue) == false)\n            revert(\"Seed out of range.\");\n        seedsOfferedForSale[seedValue] = Offer(\n            true,\n            seedValue,\n            msg.sender,\n            minSalePriceInWei,\n            address(0)\n        );\n        emit SeedOffered(seedValue, minSalePriceInWei, address(0));\n    }\n\n    function offerSeedForSaleToAddress(\n        int64 seedValue,\n        uint256 minSalePriceInWei,\n        address toAddress\n    ) private {\n        if (!allSeedsAssigned) revert();\n        if (seedValueToAddress[seedValue] != msg.sender) revert();\n        if (isSeedValid(seedValue) == false)\n            revert(\"Seed out of range.\");\n        seedsOfferedForSale[seedValue] = Offer(\n            true,\n            seedValue,\n            msg.sender,\n            minSalePriceInWei,\n            toAddress\n        );\n        emit SeedOffered(seedValue, minSalePriceInWei, toAddress);\n    }\n\n    function buySeed(int64 seedValue) public payable {\n        if (!allSeedsAssigned) revert(\"All seeds assigned.\");\n        Offer memory offer = seedsOfferedForSale[seedValue];\n        if (isSeedValid(seedValue) == false)\n            revert(\"Seed out of range.\");\n        if (!offer.isForSale) revert(\"Not for sale\"); // seed not actually for sale\n        if (offer.onlySellTo != address(0) && offer.onlySellTo != msg.sender)\n            revert(\"seed not supposed to be sold\"); // seed not supposed to be sold to this user\n        if (msg.value < offer.minValue) revert(\"Money offered not enough.\"); // Didn't send enough ETH\n        if (offer.seller != seedValueToAddress[seedValue]) revert(); // Seller no longer owner of seed\n\n        address seller = offer.seller;\n\n        seedValueToAddress[seedValue] = msg.sender;\n        balanceOf[seller]--;\n        balanceOf[msg.sender]++;\n        emit Transfer(seller, msg.sender, 1);\n\n        seedNoLongerForSale(seedValue);\n        pendingWithdrawals[seller] += msg.value;\n        emit SeedBought(seedValue, msg.value, seller, msg.sender);\n\n        // Check for the case where there is a bid from the new owner and refund it.\n        // Any other bid can stay in place.\n        Bid storage bid = seedBids[seedValue];\n        if (bid.bidder == msg.sender) {\n            // Kill bid and refund value\n            pendingWithdrawals[msg.sender] += bid.value;\n            seedBids[seedValue] = Bid(false, seedValue, address(0), 0);\n        }\n    }\n\n    function withdraw() public payable {\n        // if (!allSeedsAssigned) revert();\n        uint256 amount = pendingWithdrawals[msg.sender];\n        // Remember to zero the pending refund before\n        // sending to prevent re-entrancy attacks\n        pendingWithdrawals[msg.sender] = 0;\n        payable(msg.sender).transfer(amount);\n    }\n\n    function enterBidForSeed(int64 seedValue) public payable {\n        if (isSeedValid(seedValue) == false)\n            revert(\"Seed out of range.\");\n        // if (!allSeedsAssigned) revert();\n        if (seedValueToAddress[seedValue] == address(0)) revert();\n        if (seedValueToAddress[seedValue] == msg.sender) revert();\n        if (msg.value == 0) revert();\n        Bid memory existing = seedBids[seedValue];\n        if (msg.value <= existing.value) revert();\n        if (existing.value > 0) {\n            // Refund the failing bid\n            pendingWithdrawals[existing.bidder] += existing.value;\n        }\n        seedBids[seedValue] = Bid(true, seedValue, msg.sender, msg.value);\n        emit SeedBidEntered(seedValue, msg.value, msg.sender);\n    }\n\n    function acceptBidForSeed(int64 seedValue, uint256 minPrice) public {\n        if (isSeedValid(seedValue) == false)\n            revert(\"Seed out of range.\");\n        // if (!allSeedsAssigned) revert();\n        if (seedValueToAddress[seedValue] != msg.sender) revert();\n        address seller = msg.sender;\n        Bid memory bid = seedBids[seedValue];\n        if (bid.value == 0) revert();\n        if (bid.value < minPrice) revert();\n\n        seedValueToAddress[seedValue] = bid.bidder;\n        balanceOf[seller]--;\n        balanceOf[bid.bidder]++;\n        emit Transfer(seller, bid.bidder, 1);\n\n        seedsOfferedForSale[seedValue] = Offer(\n            false,\n            seedValue,\n            bid.bidder,\n            0,\n            address(0)\n        );\n        uint256 amount = bid.value;\n        seedBids[seedValue] = Bid(false, seedValue, address(0), 0);\n        pendingWithdrawals[seller] += amount;\n        emit SeedBought(seedValue, bid.value, seller, bid.bidder);\n    }\n\n    function withdrawBidForSeed(int64 seedValue) public {\n        if (isSeedValid(seedValue) == false)\n            revert(\"Seed out of range.\");\n        if (!allSeedsAssigned) revert();\n        if (seedValueToAddress[seedValue] == address(0)) revert();\n        if (seedValueToAddress[seedValue] == msg.sender) revert();\n        Bid memory bid = seedBids[seedValue];\n        if (bid.bidder != msg.sender) revert();\n        emit SeedBidWithdrawn(seedValue, bid.value, msg.sender);\n        uint256 amount = bid.value;\n        seedBids[seedValue] = Bid(false, seedValue, address(0), 0);\n        // Refund the bid money\n        payable(msg.sender).transfer(amount);\n    }\n}",
  "sourcePath": "/home/konstantin/Development/rare-seeds/RareSeedsNFT/contracts/RareSeedsMarket.sol",
  "compiler": {
    "name": "solc",
    "version": "0.7.0+commit.9e61f92b.Emscripten.clang"
  },
  "schemaVersion": "3.4.3",
  "updatedAt": "2021-09-08T20:26:03.191Z",
  "networkType": "ethereum",
  "devdoc": {
    "kind": "dev",
    "methods": {},
    "version": 1
  },
  "userdoc": {
    "kind": "user",
    "methods": {},
    "version": 1
  }
}