{
  "contractName": "RareSeedsMarket",
  "abi": [
    {
      "inputs": [],
      "stateMutability": "nonpayable",
      "type": "constructor"
    },
    {
      "anonymous": false,
      "inputs": [
        {
          "indexed": true,
          "internalType": "address",
          "name": "to",
          "type": "address"
        },
        {
          "indexed": false,
          "internalType": "int64",
          "name": "seedValue",
          "type": "int64"
        }
      ],
      "name": "Assign",
      "type": "event"
    },
    {
      "anonymous": false,
      "inputs": [
        {
          "indexed": true,
          "internalType": "int64",
          "name": "seedValue",
          "type": "int64"
        },
        {
          "indexed": false,
          "internalType": "uint256",
          "name": "value",
          "type": "uint256"
        },
        {
          "indexed": true,
          "internalType": "address",
          "name": "fromAddress",
          "type": "address"
        }
      ],
      "name": "SeedBidEntered",
      "type": "event"
    },
    {
      "anonymous": false,
      "inputs": [
        {
          "indexed": true,
          "internalType": "int64",
          "name": "seedValue",
          "type": "int64"
        },
        {
          "indexed": false,
          "internalType": "uint256",
          "name": "value",
          "type": "uint256"
        },
        {
          "indexed": true,
          "internalType": "address",
          "name": "fromAddress",
          "type": "address"
        }
      ],
      "name": "SeedBidWithdrawn",
      "type": "event"
    },
    {
      "anonymous": false,
      "inputs": [
        {
          "indexed": true,
          "internalType": "int64",
          "name": "seedValue",
          "type": "int64"
        },
        {
          "indexed": false,
          "internalType": "uint256",
          "name": "value",
          "type": "uint256"
        },
        {
          "indexed": true,
          "internalType": "address",
          "name": "fromAddress",
          "type": "address"
        },
        {
          "indexed": true,
          "internalType": "address",
          "name": "toAddress",
          "type": "address"
        }
      ],
      "name": "SeedBought",
      "type": "event"
    },
    {
      "anonymous": false,
      "inputs": [
        {
          "indexed": true,
          "internalType": "int64",
          "name": "seedValue",
          "type": "int64"
        }
      ],
      "name": "SeedNoLongerForSale",
      "type": "event"
    },
    {
      "anonymous": false,
      "inputs": [
        {
          "indexed": true,
          "internalType": "int64",
          "name": "seedValue",
          "type": "int64"
        },
        {
          "indexed": false,
          "internalType": "uint256",
          "name": "minValue",
          "type": "uint256"
        },
        {
          "indexed": true,
          "internalType": "address",
          "name": "toAddress",
          "type": "address"
        }
      ],
      "name": "SeedOffered",
      "type": "event"
    },
    {
      "anonymous": false,
      "inputs": [
        {
          "indexed": true,
          "internalType": "address",
          "name": "from",
          "type": "address"
        },
        {
          "indexed": true,
          "internalType": "address",
          "name": "to",
          "type": "address"
        },
        {
          "indexed": false,
          "internalType": "int64",
          "name": "seedValue",
          "type": "int64"
        }
      ],
      "name": "SeedTransfer",
      "type": "event"
    },
    {
      "anonymous": false,
      "inputs": [
        {
          "indexed": true,
          "internalType": "address",
          "name": "from",
          "type": "address"
        },
        {
          "indexed": true,
          "internalType": "address",
          "name": "to",
          "type": "address"
        },
        {
          "indexed": false,
          "internalType": "uint256",
          "name": "value",
          "type": "uint256"
        }
      ],
      "name": "Transfer",
      "type": "event"
    },
    {
      "inputs": [],
      "name": "allSeedsAssigned",
      "outputs": [
        {
          "internalType": "bool",
          "name": "",
          "type": "bool"
        }
      ],
      "stateMutability": "view",
      "type": "function",
      "constant": true
    },
    {
      "inputs": [
        {
          "internalType": "address",
          "name": "",
          "type": "address"
        }
      ],
      "name": "balanceOf",
      "outputs": [
        {
          "internalType": "uint256",
          "name": "",
          "type": "uint256"
        }
      ],
      "stateMutability": "view",
      "type": "function",
      "constant": true
    },
    {
      "inputs": [],
      "name": "decimals",
      "outputs": [
        {
          "internalType": "uint8",
          "name": "",
          "type": "uint8"
        }
      ],
      "stateMutability": "view",
      "type": "function",
      "constant": true
    },
    {
      "inputs": [
        {
          "internalType": "uint256",
          "name": "",
          "type": "uint256"
        }
      ],
      "name": "indexToSeed",
      "outputs": [
        {
          "internalType": "int64",
          "name": "",
          "type": "int64"
        }
      ],
      "stateMutability": "view",
      "type": "function",
      "constant": true
    },
    {
      "inputs": [],
      "name": "maxSeed",
      "outputs": [
        {
          "internalType": "int64",
          "name": "",
          "type": "int64"
        }
      ],
      "stateMutability": "view",
      "type": "function",
      "constant": true
    },
    {
      "inputs": [],
      "name": "minSeed",
      "outputs": [
        {
          "internalType": "int64",
          "name": "",
          "type": "int64"
        }
      ],
      "stateMutability": "view",
      "type": "function",
      "constant": true
    },
    {
      "inputs": [],
      "name": "mintFee",
      "outputs": [
        {
          "internalType": "uint256",
          "name": "",
          "type": "uint256"
        }
      ],
      "stateMutability": "view",
      "type": "function",
      "constant": true
    },
    {
      "inputs": [],
      "name": "name",
      "outputs": [
        {
          "internalType": "string",
          "name": "",
          "type": "string"
        }
      ],
      "stateMutability": "view",
      "type": "function",
      "constant": true
    },
    {
      "inputs": [
        {
          "internalType": "address",
          "name": "",
          "type": "address"
        }
      ],
      "name": "pendingWithdrawals",
      "outputs": [
        {
          "internalType": "uint256",
          "name": "",
          "type": "uint256"
        }
      ],
      "stateMutability": "view",
      "type": "function",
      "constant": true
    },
    {
      "inputs": [
        {
          "internalType": "int64",
          "name": "",
          "type": "int64"
        }
      ],
      "name": "seedBids",
      "outputs": [
        {
          "internalType": "bool",
          "name": "hasBid",
          "type": "bool"
        },
        {
          "internalType": "int64",
          "name": "seedValue",
          "type": "int64"
        },
        {
          "internalType": "address",
          "name": "bidder",
          "type": "address"
        },
        {
          "internalType": "uint256",
          "name": "value",
          "type": "uint256"
        }
      ],
      "stateMutability": "view",
      "type": "function",
      "constant": true
    },
    {
      "inputs": [],
      "name": "seedIndex",
      "outputs": [
        {
          "internalType": "uint256",
          "name": "",
          "type": "uint256"
        }
      ],
      "stateMutability": "view",
      "type": "function",
      "constant": true
    },
    {
      "inputs": [
        {
          "internalType": "int64",
          "name": "",
          "type": "int64"
        }
      ],
      "name": "seedValueToAddress",
      "outputs": [
        {
          "internalType": "address",
          "name": "",
          "type": "address"
        }
      ],
      "stateMutability": "view",
      "type": "function",
      "constant": true
    },
    {
      "inputs": [
        {
          "internalType": "int64",
          "name": "",
          "type": "int64"
        }
      ],
      "name": "seedValueToUri",
      "outputs": [
        {
          "internalType": "string",
          "name": "",
          "type": "string"
        }
      ],
      "stateMutability": "view",
      "type": "function",
      "constant": true
    },
    {
      "inputs": [
        {
          "internalType": "int64",
          "name": "",
          "type": "int64"
        }
      ],
      "name": "seedValueToWorldName",
      "outputs": [
        {
          "internalType": "string",
          "name": "",
          "type": "string"
        }
      ],
      "stateMutability": "view",
      "type": "function",
      "constant": true
    },
    {
      "inputs": [
        {
          "internalType": "int64",
          "name": "",
          "type": "int64"
        }
      ],
      "name": "seedsOfferedForSale",
      "outputs": [
        {
          "internalType": "bool",
          "name": "isForSale",
          "type": "bool"
        },
        {
          "internalType": "int64",
          "name": "seedValue",
          "type": "int64"
        },
        {
          "internalType": "address",
          "name": "seller",
          "type": "address"
        },
        {
          "internalType": "uint256",
          "name": "minValue",
          "type": "uint256"
        },
        {
          "internalType": "address",
          "name": "onlySellTo",
          "type": "address"
        }
      ],
      "stateMutability": "view",
      "type": "function",
      "constant": true
    },
    {
      "inputs": [],
      "name": "seedsRemainingToAssign",
      "outputs": [
        {
          "internalType": "uint256",
          "name": "",
          "type": "uint256"
        }
      ],
      "stateMutability": "view",
      "type": "function",
      "constant": true
    },
    {
      "inputs": [],
      "name": "standard",
      "outputs": [
        {
          "internalType": "string",
          "name": "",
          "type": "string"
        }
      ],
      "stateMutability": "view",
      "type": "function",
      "constant": true
    },
    {
      "inputs": [],
      "name": "symbol",
      "outputs": [
        {
          "internalType": "string",
          "name": "",
          "type": "string"
        }
      ],
      "stateMutability": "view",
      "type": "function",
      "constant": true
    },
    {
      "inputs": [],
      "name": "totalSupply",
      "outputs": [
        {
          "internalType": "uint256",
          "name": "",
          "type": "uint256"
        }
      ],
      "stateMutability": "view",
      "type": "function",
      "constant": true
    },
    {
      "inputs": [
        {
          "internalType": "uint256",
          "name": "newValue",
          "type": "uint256"
        }
      ],
      "name": "updateMintFee",
      "outputs": [],
      "stateMutability": "nonpayable",
      "type": "function"
    },
    {
      "inputs": [
        {
          "internalType": "int64",
          "name": "seedValue",
          "type": "int64"
        },
        {
          "internalType": "string",
          "name": "worldName",
          "type": "string"
        },
        {
          "internalType": "string",
          "name": "uri",
          "type": "string"
        }
      ],
      "name": "getSeed",
      "outputs": [],
      "stateMutability": "payable",
      "type": "function",
      "payable": true
    },
    {
      "inputs": [
        {
          "internalType": "int64",
          "name": "seedValue",
          "type": "int64"
        }
      ],
      "name": "seedNoLongerForSale",
      "outputs": [],
      "stateMutability": "nonpayable",
      "type": "function"
    },
    {
      "inputs": [
        {
          "internalType": "int64",
          "name": "seedValue",
          "type": "int64"
        },
        {
          "internalType": "uint256",
          "name": "minSalePriceInWei",
          "type": "uint256"
        }
      ],
      "name": "offerSeedForSale",
      "outputs": [],
      "stateMutability": "nonpayable",
      "type": "function"
    },
    {
      "inputs": [
        {
          "internalType": "int64",
          "name": "seedValue",
          "type": "int64"
        }
      ],
      "name": "buySeed",
      "outputs": [],
      "stateMutability": "payable",
      "type": "function",
      "payable": true
    },
    {
      "inputs": [],
      "name": "withdraw",
      "outputs": [],
      "stateMutability": "payable",
      "type": "function",
      "payable": true
    },
    {
      "inputs": [
        {
          "internalType": "int64",
          "name": "seedValue",
          "type": "int64"
        }
      ],
      "name": "enterBidForSeed",
      "outputs": [],
      "stateMutability": "payable",
      "type": "function",
      "payable": true
    },
    {
      "inputs": [
        {
          "internalType": "int64",
          "name": "seedValue",
          "type": "int64"
        },
        {
          "internalType": "uint256",
          "name": "minPrice",
          "type": "uint256"
        }
      ],
      "name": "acceptBidForSeed",
      "outputs": [],
      "stateMutability": "nonpayable",
      "type": "function"
    },
    {
      "inputs": [
        {
          "internalType": "int64",
          "name": "seedValue",
          "type": "int64"
        }
      ],
      "name": "withdrawBidForSeed",
      "outputs": [],
      "stateMutability": "nonpayable",
      "type": "function"
    },
    {
      "inputs": [
        {
          "internalType": "int64",
          "name": "seedValue",
          "type": "int64"
        },
        {
          "internalType": "string",
          "name": "uri",
          "type": "string"
        }
      ],
      "name": "setSeedUri",
      "outputs": [],
      "stateMutability": "nonpayable",
      "type": "function"
    }
  ],
  "bytecode": "0x60806040526040518060400160405280600981526020017f5261726553656564730000000000000000000000000000000000000000000000815250600190805190602001906200005192919062000223565b50677fffffffffffffff600760006101000a81548167ffffffffffffffff021916908360070b67ffffffffffffffff1602179055507fffffffffffffffffffffffffffffffffffffffffffffffff8000000000000000600760086101000a81548167ffffffffffffffff021916908360070b67ffffffffffffffff1602179055506000600760106101000a81548160ff0219169083151502179055506000600855660aa87bee5380006009553480156200010a57600080fd5b50336000806101000a81548173ffffffffffffffffffffffffffffffffffffffff021916908373ffffffffffffffffffffffffffffffffffffffff1602179055506102006005819055506005546008819055506040518060400160405280600981526020017f524152455345454453000000000000000000000000000000000000000000000081525060029080519060200190620001aa92919062000223565b506040518060400160405280600381526020017f525358000000000000000000000000000000000000000000000000000000000081525060039080519060200190620001f892919062000223565b506000600460006101000a81548160ff021916908360ff1602179055506000600681905550620002c9565b828054600181600116156101000203166002900490600052602060002090601f016020900481019282601f106200026657805160ff191683800117855562000297565b8280016001018555821562000297579182015b828111156200029657825182559160200191906001019062000279565b5b509050620002a69190620002aa565b5090565b5b80821115620002c5576000816000905550600101620002ab565b5090565b61380c80620002d96000396000f3fe6080604052600436106101c25760003560e01c80634559f601116100f7578063ae497f3f11610095578063ef2e827011610064578063ef2e827014610ab6578063f3f4370314610b6d578063f4b7920014610bd2578063f593ba3b14610bff576101c2565b8063ae497f3f146109d7578063ca92163114610a05578063d353026f14610a33578063de34ddf114610a64576101c2565b806370a08231116100d157806370a082311461083f57806384017e52146108a457806395d89b41146108df57806397c543391461096f576101c2565b80634559f601146107295780635a3b7e42146107715780636c3282af14610801576101c2565b80631af713f311610164578063313ce5671161013e578063313ce567146106955780633ccfd60b146106c35780633f24fb9c146106cd578063448f26d2146106f8576101c2565b80631af713f3146104375780631d339145146105965780632b2005821461064d576101c2565b806313966db5116101a057806313966db51461032157806316909d401461034c57806318160ddd1461038a5780631889f737146103b5576101c2565b806306fdde03146101c757806307b96bcc146102575780630fa2352614610282575b600080fd5b3480156101d357600080fd5b506101dc610cd4565b6040518080602001828103825283818151815260200191508051906020019080838360005b8381101561021c578082015181840152602081019050610201565b50505050905090810190601f1680156102495780820380516001836020036101000a031916815260200191505b509250505060405180910390f35b34801561026357600080fd5b5061026c610d72565b6040518082815260200191505060405180910390f35b34801561028e57600080fd5b506102be600480360360208110156102a557600080fd5b81019080803560070b9060200190929190505050610d78565b6040518086151581526020018560070b81526020018473ffffffffffffffffffffffffffffffffffffffff1681526020018381526020018273ffffffffffffffffffffffffffffffffffffffff1681526020019550505050505060405180910390f35b34801561032d57600080fd5b50610336610e08565b6040518082815260200191505060405180910390f35b34801561035857600080fd5b506103886004803603602081101561036f57600080fd5b81019080803560070b9060200190929190505050610e0e565b005b34801561039657600080fd5b5061039f61123a565b6040518082815260200191505060405180910390f35b3480156103c157600080fd5b506103f1600480360360208110156103d857600080fd5b81019080803560070b9060200190929190505050611240565b6040518085151581526020018460070b81526020018373ffffffffffffffffffffffffffffffffffffffff16815260200182815260200194505050505060405180910390f35b6105946004803603606081101561044d57600080fd5b81019080803560070b90602001909291908035906020019064010000000081111561047757600080fd5b82018360208201111561048957600080fd5b803590602001918460018302840111640100000000831117156104ab57600080fd5b91908080601f016020809104026020016040519081016040528093929190818152602001838380828437600081840152601f19601f8201169050808301925050505050505091929192908035906020019064010000000081111561050e57600080fd5b82018360208201111561052057600080fd5b8035906020019184600183028401116401000000008311171561054257600080fd5b91908080601f016020809104026020016040519081016040528093929190818152602001838380828437600081840152601f19601f8201169050808301925050505050505091929192905050506112aa565b005b3480156105a257600080fd5b506105d2600480360360208110156105b957600080fd5b81019080803560070b9060200190929190505050611821565b6040518080602001828103825283818151815260200191508051906020019080838360005b838110156106125780820151818401526020810190506105f7565b50505050905090810190601f16801561063f5780820380516001836020036101000a031916815260200191505b509250505060405180910390f35b34801561065957600080fd5b506106936004803603604081101561067057600080fd5b81019080803560070b9060200190929190803590602001909291905050506118d1565b005b3480156106a157600080fd5b506106aa611be5565b604051808260ff16815260200191505060405180910390f35b6106cb611bf8565b005b3480156106d957600080fd5b506106e2611ccb565b6040518082815260200191505060405180910390f35b6107276004803603602081101561070e57600080fd5b81019080803560070b9060200190929190505050611cd1565b005b34801561073557600080fd5b5061076f6004803603604081101561074c57600080fd5b81019080803560070b9060200190929190803590602001909291905050506120d2565b005b34801561077d57600080fd5b5061078661274e565b6040518080602001828103825283818151815260200191508051906020019080838360005b838110156107c65780820151818401526020810190506107ab565b50505050905090810190601f1680156107f35780820380516001836020036101000a031916815260200191505b509250505060405180910390f35b34801561080d57600080fd5b5061083d6004803603602081101561082457600080fd5b81019080803560070b90602001909291905050506127ec565b005b34801561084b57600080fd5b5061088e6004803603602081101561086257600080fd5b81019080803573ffffffffffffffffffffffffffffffffffffffff169060200190929190505050612a74565b6040518082815260200191505060405180910390f35b3480156108b057600080fd5b506108dd600480360360208110156108c757600080fd5b8101908080359060200190929190505050612a8c565b005b3480156108eb57600080fd5b506108f4612aec565b6040518080602001828103825283818151815260200191508051906020019080838360005b83811015610934578082015181840152602081019050610919565b50505050905090810190601f1680156109615780820380516001836020036101000a031916815260200191505b509250505060405180910390f35b34801561097b57600080fd5b506109ab6004803603602081101561099257600080fd5b81019080803560070b9060200190929190505050612b8a565b604051808273ffffffffffffffffffffffffffffffffffffffff16815260200191505060405180910390f35b3480156109e357600080fd5b506109ec612bbd565b604051808260070b815260200191505060405180910390f35b348015610a1157600080fd5b50610a1a612bd0565b604051808260070b815260200191505060405180910390f35b610a6260048036036020811015610a4957600080fd5b81019080803560070b9060200190929190505050612be3565b005b348015610a7057600080fd5b50610a9d60048036036020811015610a8757600080fd5b810190808035906020019092919050505061343e565b604051808260070b815260200191505060405180910390f35b348015610ac257600080fd5b50610af260048036036020811015610ad957600080fd5b81019080803560070b906020019092919050505061345e565b6040518080602001828103825283818151815260200191508051906020019080838360005b83811015610b32578082015181840152602081019050610b17565b50505050905090810190601f168015610b5f5780820380516001836020036101000a031916815260200191505b509250505060405180910390f35b348015610b7957600080fd5b50610bbc60048036036020811015610b9057600080fd5b81019080803573ffffffffffffffffffffffffffffffffffffffff16906020019092919050505061350e565b6040518082815260200191505060405180910390f35b348015610bde57600080fd5b50610be7613526565b60405180821515815260200191505060405180910390f35b348015610c0b57600080fd5b50610cd260048036036040811015610c2257600080fd5b81019080803560070b906020019092919080359060200190640100000000811115610c4c57600080fd5b820183602082011115610c5e57600080fd5b80359060200191846001830284011164010000000083111715610c8057600080fd5b91908080601f016020809104026020016040519081016040528093929190818152602001838380828437600081840152601f19601f820116905080830192505050505050509192919290505050613539565b005b60028054600181600116156101000203166002900480601f016020809104026020016040519081016040528092919081815260200182805460018160011615610100020316600290048015610d6a5780601f10610d3f57610100808354040283529160200191610d6a565b820191906000526020600020905b815481529060010190602001808311610d4d57829003601f168201915b505050505081565b60085481565b600f6020528060005260406000206000915090508060000160009054906101000a900460ff16908060000160019054906101000a900460070b908060000160099054906101000a900473ffffffffffffffffffffffffffffffffffffffff16908060010154908060020160009054906101000a900473ffffffffffffffffffffffffffffffffffffffff16905085565b60095481565b60001515610e1b82613645565b15151415610e91576040517f08c379a00000000000000000000000000000000000000000000000000000000081526004018080602001828103825260128152602001807f53656564206f7574206f662072616e67652e000000000000000000000000000081525060200191505060405180910390fd5b600760109054906101000a900460ff16610eaa57600080fd5b600073ffffffffffffffffffffffffffffffffffffffff16600a60008360070b60070b815260200190815260200160002060009054906101000a900473ffffffffffffffffffffffffffffffffffffffff1673ffffffffffffffffffffffffffffffffffffffff161415610f1d57600080fd5b3373ffffffffffffffffffffffffffffffffffffffff16600a60008360070b60070b815260200190815260200160002060009054906101000a900473ffffffffffffffffffffffffffffffffffffffff1673ffffffffffffffffffffffffffffffffffffffff161415610f8f57600080fd5b610f97613696565b601060008360070b60070b81526020019081526020016000206040518060800160405290816000820160009054906101000a900460ff161515151581526020016000820160019054906101000a900460070b60070b60070b81526020016000820160099054906101000a900473ffffffffffffffffffffffffffffffffffffffff1673ffffffffffffffffffffffffffffffffffffffff1673ffffffffffffffffffffffffffffffffffffffff16815260200160018201548152505090503373ffffffffffffffffffffffffffffffffffffffff16816040015173ffffffffffffffffffffffffffffffffffffffff161461109157600080fd5b3373ffffffffffffffffffffffffffffffffffffffff168260070b7f2ec72c00cd51b98f9b1ad4bc570f226381277c048b0cea45c4e3f1fbbdcb24fe83606001516040518082815260200191505060405180910390a360008160600151905060405180608001604052806000151581526020018460070b8152602001600073ffffffffffffffffffffffffffffffffffffffff1681526020016000815250601060008560070b60070b815260200190815260200160002060008201518160000160006101000a81548160ff02191690831515021790555060208201518160000160016101000a81548167ffffffffffffffff021916908360070b67ffffffffffffffff16021790555060408201518160000160096101000a81548173ffffffffffffffffffffffffffffffffffffffff021916908373ffffffffffffffffffffffffffffffffffffffff160217905550606082015181600101559050503373ffffffffffffffffffffffffffffffffffffffff166108fc829081150290604051600060405180830381858888f19350505050158015611234573d6000803e3d6000fd5b50505050565b60055481565b60106020528060005260406000206000915090508060000160009054906101000a900460ff16908060000160019054906101000a900460070b908060000160099054906101000a900473ffffffffffffffffffffffffffffffffffffffff16908060010154905084565b600760109054906101000a900460ff161561132d576040517f08c379a00000000000000000000000000000000000000000000000000000000081526004018080602001828103825260138152602001807f416c6c2073656564732061737369676e65642e0000000000000000000000000081525060200191505060405180910390fd5b600060085414156113a6576040517f08c379a00000000000000000000000000000000000000000000000000000000081526004018080602001828103825260138152602001807f6e6f2073656564732072656d61696e696e672e0000000000000000000000000081525060200191505060405180910390fd5b6005546006541115611420576040517f08c379a00000000000000000000000000000000000000000000000000000000081526004018080602001828103825260188152602001807f6e6f206d6f72652073656564732072656d61696e696e672e000000000000000081525060200191505060405180910390fd5b6000151561142d84613645565b151514156114a3576040517f08c379a00000000000000000000000000000000000000000000000000000000081526004018080602001828103825260128152602001807f53656564206f7574206f662072616e67652e000000000000000000000000000081525060200191505060405180910390fd5b600073ffffffffffffffffffffffffffffffffffffffff16600a60008560070b60070b815260200190815260200160002060009054906101000a900473ffffffffffffffffffffffffffffffffffffffff1673ffffffffffffffffffffffffffffffffffffffff161461157e576040517f08c379a000000000000000000000000000000000000000000000000000000000815260040180806020018281038252600e8152602001807f416c72656164792074616b656e2e00000000000000000000000000000000000081525060200191505060405180910390fd5b6009543410156115f6576040517f08c379a000000000000000000000000000000000000000000000000000000000815260040180806020018281038252601d8152602001807f4e6f7420656e6f756768206d696e74206665657320737570706c69656400000081525060200191505060405180910390fd5b33600a60008560070b60070b815260200190815260200160002060006101000a81548173ffffffffffffffffffffffffffffffffffffffff021916908373ffffffffffffffffffffffffffffffffffffffff16021790555081600b60008560070b60070b8152602001908152602001600020908051906020019061167b9291906136d9565b5080600e60008560070b60070b815260200190815260200160002090805190602001906116a99291906136d9565b50600c60003373ffffffffffffffffffffffffffffffffffffffff1673ffffffffffffffffffffffffffffffffffffffff168152602001908152602001600020600081548092919060010191905055506008600081548092919060019003919050555060066000815480929190600101919050555082600d6000600654815260200190815260200160002060006101000a81548167ffffffffffffffff021916908360070b67ffffffffffffffff16021790555034601160008060009054906101000a900473ffffffffffffffffffffffffffffffffffffffff1673ffffffffffffffffffffffffffffffffffffffff1673ffffffffffffffffffffffffffffffffffffffff168152602001908152602001600020600082825401925050819055503373ffffffffffffffffffffffffffffffffffffffff167f89f1718a410b370367ee80353ee1a8a86c5f138470ecad5f96c73e4bd0719f5084604051808260070b815260200191505060405180910390a2505050565b600b6020528060005260406000206000915090508054600181600116156101000203166002900480601f0160208091040260200160405190810160405280929190818152602001828054600181600116156101000203166002900480156118c95780601f1061189e576101008083540402835291602001916118c9565b820191906000526020600020905b8154815290600101906020018083116118ac57829003601f168201915b505050505081565b3373ffffffffffffffffffffffffffffffffffffffff16600a60008460070b60070b815260200190815260200160002060009054906101000a900473ffffffffffffffffffffffffffffffffffffffff1673ffffffffffffffffffffffffffffffffffffffff16146119ab576040517f08c379a000000000000000000000000000000000000000000000000000000000815260040180806020018281038252601c8152602001807f53656e646572206973206e6f74206f776e6572206f6620736565642e0000000081525060200191505060405180910390fd5b600015156119b883613645565b15151415611a2e576040517f08c379a00000000000000000000000000000000000000000000000000000000081526004018080602001828103825260128152602001807f53656564206f7574206f662072616e67652e000000000000000000000000000081525060200191505060405180910390fd5b6040518060a001604052806001151581526020018360070b81526020013373ffffffffffffffffffffffffffffffffffffffff168152602001828152602001600073ffffffffffffffffffffffffffffffffffffffff16815250600f60008460070b60070b815260200190815260200160002060008201518160000160006101000a81548160ff02191690831515021790555060208201518160000160016101000a81548167ffffffffffffffff021916908360070b67ffffffffffffffff16021790555060408201518160000160096101000a81548173ffffffffffffffffffffffffffffffffffffffff021916908373ffffffffffffffffffffffffffffffffffffffff1602179055506060820151816001015560808201518160020160006101000a81548173ffffffffffffffffffffffffffffffffffffffff021916908373ffffffffffffffffffffffffffffffffffffffff160217905550905050600073ffffffffffffffffffffffffffffffffffffffff168260070b7ffaddffbee2fb78f6feddf87f1632a4d45572e2e4ba758ec5d6c752af0243d1aa836040518082815260200191505060405180910390a35050565b600460009054906101000a900460ff1681565b6000601160003373ffffffffffffffffffffffffffffffffffffffff1673ffffffffffffffffffffffffffffffffffffffff1681526020019081526020016000205490506000601160003373ffffffffffffffffffffffffffffffffffffffff1673ffffffffffffffffffffffffffffffffffffffff168152602001908152602001600020819055503373ffffffffffffffffffffffffffffffffffffffff166108fc829081150290604051600060405180830381858888f19350505050158015611cc7573d6000803e3d6000fd5b5050565b60065481565b60001515611cde82613645565b15151415611d54576040517f08c379a00000000000000000000000000000000000000000000000000000000081526004018080602001828103825260128152602001807f53656564206f7574206f662072616e67652e000000000000000000000000000081525060200191505060405180910390fd5b600073ffffffffffffffffffffffffffffffffffffffff16600a60008360070b60070b815260200190815260200160002060009054906101000a900473ffffffffffffffffffffffffffffffffffffffff1673ffffffffffffffffffffffffffffffffffffffff161415611dc757600080fd5b3373ffffffffffffffffffffffffffffffffffffffff16600a60008360070b60070b815260200190815260200160002060009054906101000a900473ffffffffffffffffffffffffffffffffffffffff1673ffffffffffffffffffffffffffffffffffffffff161415611e3957600080fd5b6000341415611e4757600080fd5b611e4f613696565b601060008360070b60070b81526020019081526020016000206040518060800160405290816000820160009054906101000a900460ff161515151581526020016000820160019054906101000a900460070b60070b60070b81526020016000820160099054906101000a900473ffffffffffffffffffffffffffffffffffffffff1673ffffffffffffffffffffffffffffffffffffffff1673ffffffffffffffffffffffffffffffffffffffff168152602001600182015481525050905080606001513411611f1d57600080fd5b600081606001511115611f8057806060015160116000836040015173ffffffffffffffffffffffffffffffffffffffff1673ffffffffffffffffffffffffffffffffffffffff168152602001908152602001600020600082825401925050819055505b60405180608001604052806001151581526020018360070b81526020013373ffffffffffffffffffffffffffffffffffffffff16815260200134815250601060008460070b60070b815260200190815260200160002060008201518160000160006101000a81548160ff02191690831515021790555060208201518160000160016101000a81548167ffffffffffffffff021916908360070b67ffffffffffffffff16021790555060408201518160000160096101000a81548173ffffffffffffffffffffffffffffffffffffffff021916908373ffffffffffffffffffffffffffffffffffffffff160217905550606082015181600101559050503373ffffffffffffffffffffffffffffffffffffffff168260070b7f070500a84b87f9fcb83dedc07adac5028d7ba727c0fa64d4b29c849aad1140bd346040518082815260200191505060405180910390a35050565b600015156120df83613645565b15151415612155576040517f08c379a00000000000000000000000000000000000000000000000000000000081526004018080602001828103825260128152602001807f53656564206f7574206f662072616e67652e000000000000000000000000000081525060200191505060405180910390fd5b3373ffffffffffffffffffffffffffffffffffffffff16600a60008460070b60070b815260200190815260200160002060009054906101000a900473ffffffffffffffffffffffffffffffffffffffff1673ffffffffffffffffffffffffffffffffffffffff16146121c657600080fd5b60003390506121d3613696565b601060008560070b60070b81526020019081526020016000206040518060800160405290816000820160009054906101000a900460ff161515151581526020016000820160019054906101000a900460070b60070b60070b81526020016000820160099054906101000a900473ffffffffffffffffffffffffffffffffffffffff1673ffffffffffffffffffffffffffffffffffffffff1673ffffffffffffffffffffffffffffffffffffffff16815260200160018201548152505090506000816060015114156122a357600080fd5b82816060015110156122b457600080fd5b8060400151600a60008660070b60070b815260200190815260200160002060006101000a81548173ffffffffffffffffffffffffffffffffffffffff021916908373ffffffffffffffffffffffffffffffffffffffff160217905550600c60008373ffffffffffffffffffffffffffffffffffffffff1673ffffffffffffffffffffffffffffffffffffffff1681526020019081526020016000206000815480929190600190039190505550600c6000826040015173ffffffffffffffffffffffffffffffffffffffff1673ffffffffffffffffffffffffffffffffffffffff16815260200190815260200160002060008154809291906001019190505550806040015173ffffffffffffffffffffffffffffffffffffffff168273ffffffffffffffffffffffffffffffffffffffff167fddf252ad1be2c89b69c2b068fc378daa952ba7f163c4a11628f55a4df523b3ef60016040518082815260200191505060405180910390a36040518060a001604052806000151581526020018560070b8152602001826040015173ffffffffffffffffffffffffffffffffffffffff16815260200160008152602001600073ffffffffffffffffffffffffffffffffffffffff16815250600f60008660070b60070b815260200190815260200160002060008201518160000160006101000a81548160ff02191690831515021790555060208201518160000160016101000a81548167ffffffffffffffff021916908360070b67ffffffffffffffff16021790555060408201518160000160096101000a81548173ffffffffffffffffffffffffffffffffffffffff021916908373ffffffffffffffffffffffffffffffffffffffff1602179055506060820151816001015560808201518160020160006101000a81548173ffffffffffffffffffffffffffffffffffffffff021916908373ffffffffffffffffffffffffffffffffffffffff16021790555090505060008160600151905060405180608001604052806000151581526020018660070b8152602001600073ffffffffffffffffffffffffffffffffffffffff1681526020016000815250601060008760070b60070b815260200190815260200160002060008201518160000160006101000a81548160ff02191690831515021790555060208201518160000160016101000a81548167ffffffffffffffff021916908360070b67ffffffffffffffff16021790555060408201518160000160096101000a81548173ffffffffffffffffffffffffffffffffffffffff021916908373ffffffffffffffffffffffffffffffffffffffff1602179055506060820151816001015590505080601160008573ffffffffffffffffffffffffffffffffffffffff1673ffffffffffffffffffffffffffffffffffffffff16815260200190815260200160002060008282540192505081905550816040015173ffffffffffffffffffffffffffffffffffffffff168373ffffffffffffffffffffffffffffffffffffffff168660070b7f0964354c3835b8c61ea26066f544784910f15e649e1e6e14298cf86edb03d9a785606001516040518082815260200191505060405180910390a45050505050565b60018054600181600116156101000203166002900480601f0160208091040260200160405190810160405280929190818152602001828054600181600116156101000203166002900480156127e45780601f106127b9576101008083540402835291602001916127e4565b820191906000526020600020905b8154815290600101906020018083116127c757829003601f168201915b505050505081565b3373ffffffffffffffffffffffffffffffffffffffff16600a60008360070b60070b815260200190815260200160002060009054906101000a900473ffffffffffffffffffffffffffffffffffffffff1673ffffffffffffffffffffffffffffffffffffffff161461285d57600080fd5b6000151561286a82613645565b151514156128e0576040517f08c379a00000000000000000000000000000000000000000000000000000000081526004018080602001828103825260128152602001807f53656564206f7574206f662072616e67652e000000000000000000000000000081525060200191505060405180910390fd5b6040518060a001604052806000151581526020018260070b81526020013373ffffffffffffffffffffffffffffffffffffffff16815260200160008152602001600073ffffffffffffffffffffffffffffffffffffffff16815250600f60008360070b60070b815260200190815260200160002060008201518160000160006101000a81548160ff02191690831515021790555060208201518160000160016101000a81548167ffffffffffffffff021916908360070b67ffffffffffffffff16021790555060408201518160000160096101000a81548173ffffffffffffffffffffffffffffffffffffffff021916908373ffffffffffffffffffffffffffffffffffffffff1602179055506060820151816001015560808201518160020160006101000a81548173ffffffffffffffffffffffffffffffffffffffff021916908373ffffffffffffffffffffffffffffffffffffffff1602179055509050508060070b7f9b6ce16159f21562074bb759799719af3f77e171528ec0ff25576e1ea1836ad960405160405180910390a250565b600c6020528060005260406000206000915090505481565b60008054906101000a900473ffffffffffffffffffffffffffffffffffffffff1673ffffffffffffffffffffffffffffffffffffffff163373ffffffffffffffffffffffffffffffffffffffff161415612ae257fe5b8060098190555050565b60038054600181600116156101000203166002900480601f016020809104026020016040519081016040528092919081815260200182805460018160011615610100020316600290048015612b825780601f10612b5757610100808354040283529160200191612b82565b820191906000526020600020905b815481529060010190602001808311612b6557829003601f168201915b505050505081565b600a6020528060005260406000206000915054906101000a900473ffffffffffffffffffffffffffffffffffffffff1681565b600760009054906101000a900460070b81565b600760089054906101000a900460070b81565b600760109054906101000a900460ff16612c65576040517f08c379a00000000000000000000000000000000000000000000000000000000081526004018080602001828103825260138152602001807f416c6c2073656564732061737369676e65642e0000000000000000000000000081525060200191505060405180910390fd5b612c6d613759565b600f60008360070b60070b81526020019081526020016000206040518060a00160405290816000820160009054906101000a900460ff161515151581526020016000820160019054906101000a900460070b60070b60070b81526020016000820160099054906101000a900473ffffffffffffffffffffffffffffffffffffffff1673ffffffffffffffffffffffffffffffffffffffff1673ffffffffffffffffffffffffffffffffffffffff168152602001600182015481526020016002820160009054906101000a900473ffffffffffffffffffffffffffffffffffffffff1673ffffffffffffffffffffffffffffffffffffffff1673ffffffffffffffffffffffffffffffffffffffff1681525050905060001515612d8e83613645565b15151415612e04576040517f08c379a00000000000000000000000000000000000000000000000000000000081526004018080602001828103825260128152602001807f53656564206f7574206f662072616e67652e000000000000000000000000000081525060200191505060405180910390fd5b8060000151612e7b576040517f08c379a000000000000000000000000000000000000000000000000000000000815260040180806020018281038252600c8152602001807f4e6f7420666f722073616c65000000000000000000000000000000000000000081525060200191505060405180910390fd5b600073ffffffffffffffffffffffffffffffffffffffff16816080015173ffffffffffffffffffffffffffffffffffffffff1614158015612eec57503373ffffffffffffffffffffffffffffffffffffffff16816080015173ffffffffffffffffffffffffffffffffffffffff1614155b15612f5f576040517f08c379a000000000000000000000000000000000000000000000000000000000815260040180806020018281038252601c8152602001807f73656564206e6f7420737570706f73656420746f20626520736f6c640000000081525060200191505060405180910390fd5b8060600151341015612fd9576040517f08c379a00000000000000000000000000000000000000000000000000000000081526004018080602001828103825260198152602001807f4d6f6e6579206f666665726564206e6f7420656e6f7567682e0000000000000081525060200191505060405180910390fd5b600a60008360070b60070b815260200190815260200160002060009054906101000a900473ffffffffffffffffffffffffffffffffffffffff1673ffffffffffffffffffffffffffffffffffffffff16816040015173ffffffffffffffffffffffffffffffffffffffff161461304e57600080fd5b60008160400151905033600a60008560070b60070b815260200190815260200160002060006101000a81548173ffffffffffffffffffffffffffffffffffffffff021916908373ffffffffffffffffffffffffffffffffffffffff160217905550600c60008273ffffffffffffffffffffffffffffffffffffffff1673ffffffffffffffffffffffffffffffffffffffff1681526020019081526020016000206000815480929190600190039190505550600c60003373ffffffffffffffffffffffffffffffffffffffff1673ffffffffffffffffffffffffffffffffffffffff168152602001908152602001600020600081548092919060010191905055503373ffffffffffffffffffffffffffffffffffffffff168173ffffffffffffffffffffffffffffffffffffffff167fddf252ad1be2c89b69c2b068fc378daa952ba7f163c4a11628f55a4df523b3ef60016040518082815260200191505060405180910390a36131bd836127ec565b34601160008373ffffffffffffffffffffffffffffffffffffffff1673ffffffffffffffffffffffffffffffffffffffff168152602001908152602001600020600082825401925050819055503373ffffffffffffffffffffffffffffffffffffffff168173ffffffffffffffffffffffffffffffffffffffff168460070b7f0964354c3835b8c61ea26066f544784910f15e649e1e6e14298cf86edb03d9a7346040518082815260200191505060405180910390a46000601060008560070b60070b815260200190815260200160002090503373ffffffffffffffffffffffffffffffffffffffff168160000160099054906101000a900473ffffffffffffffffffffffffffffffffffffffff1673ffffffffffffffffffffffffffffffffffffffff161415613438578060010154601160003373ffffffffffffffffffffffffffffffffffffffff1673ffffffffffffffffffffffffffffffffffffffff1681526020019081526020016000206000828254019250508190555060405180608001604052806000151581526020018560070b8152602001600073ffffffffffffffffffffffffffffffffffffffff1681526020016000815250601060008660070b60070b815260200190815260200160002060008201518160000160006101000a81548160ff02191690831515021790555060208201518160000160016101000a81548167ffffffffffffffff021916908360070b67ffffffffffffffff16021790555060408201518160000160096101000a81548173ffffffffffffffffffffffffffffffffffffffff021916908373ffffffffffffffffffffffffffffffffffffffff160217905550606082015181600101559050505b50505050565b600d6020528060005260406000206000915054906101000a900460070b81565b600e6020528060005260406000206000915090508054600181600116156101000203166002900480601f0160208091040260200160405190810160405280929190818152602001828054600181600116156101000203166002900480156135065780601f106134db57610100808354040283529160200191613506565b820191906000526020600020905b8154815290600101906020018083116134e957829003601f168201915b505050505081565b60116020528060005260406000206000915090505481565b600760109054906101000a900460ff1681565b600a60008360070b60070b815260200190815260200160002060009054906101000a900473ffffffffffffffffffffffffffffffffffffffff1673ffffffffffffffffffffffffffffffffffffffff163373ffffffffffffffffffffffffffffffffffffffff1614613613576040517f08c379a00000000000000000000000000000000000000000000000000000000081526004018080602001828103825260138152602001807f53656e646572206973206e6f74206f776e65720000000000000000000000000081525060200191505060405180910390fd5b80600e60008460070b60070b815260200190815260200160002090805190602001906136409291906136d9565b505050565b6000600760009054906101000a900460070b60070b8260070b1315806136805750600760089054906101000a900460070b60070b8260070b12155b8061368f575060008260070b14155b9050919050565b6040518060800160405280600015158152602001600060070b8152602001600073ffffffffffffffffffffffffffffffffffffffff168152602001600081525090565b828054600181600116156101000203166002900490600052602060002090601f016020900481019282601f1061371a57805160ff1916838001178555613748565b82800160010185558215613748579182015b8281111561374757825182559160200191906001019061372c565b5b50905061375591906137b9565b5090565b6040518060a00160405280600015158152602001600060070b8152602001600073ffffffffffffffffffffffffffffffffffffffff16815260200160008152602001600073ffffffffffffffffffffffffffffffffffffffff1681525090565b5b808211156137d25760008160009055506001016137ba565b509056fea26469706673582212203b434cdde185ea9f69e5ae264324fff78cb849338411b57ac0263cffa515411764736f6c63430007000033",
  "immutableReferences": {},
  "source": "pragma solidity >=0.7.0 <0.9.0;\n//pragma solidity >=0.4.22 <0.9.0;\n\ncontract RareSeedsMarket {\n    address owner;\n\n    string public standard = \"RareSeeds\";\n    string public name;\n    string public symbol;\n    uint8 public decimals;\n    uint256 public totalSupply;\n\n    uint256 public seedIndex;\n\n    int64 public maxSeed = 9223372036854775807;\n    int64 public minSeed = -9223372036854775808;\n\n    bool public allSeedsAssigned = false;\n    uint256 public seedsRemainingToAssign = 0;\n    uint256 public mintFee = 3000000000000000;\n\n    mapping(int64 => address) public seedValueToAddress;\n\n    mapping(int64 => string) public seedValueToWorldName;\n\n    mapping(address => uint256) public balanceOf;\n\n    mapping(uint256 => int64) public indexToSeed;\n\n    mapping (int64 => string) public seedValueToUri;\n\n    struct Offer {\n        bool isForSale;\n        int64 seedValue;\n        address seller;\n        uint256 minValue;\n        address onlySellTo;\n    }\n\n    struct Bid {\n        bool hasBid;\n        int64 seedValue;\n        address bidder;\n        uint256 value;\n    }\n\n    mapping(int64 => Offer) public seedsOfferedForSale;\n\n    mapping(int64 => Bid) public seedBids;\n\n    mapping(address => uint256) public pendingWithdrawals;\n\n    event Assign(address indexed to, int64 seedValue);\n\n    event Transfer(address indexed from, address indexed to, uint256 value);\n\n    event SeedTransfer(\n        address indexed from,\n        address indexed to,\n        int64 seedValue\n    );\n\n    event SeedOffered(\n        int64 indexed seedValue,\n        uint256 minValue,\n        address indexed toAddress\n    );\n\n    event SeedBidEntered(\n        int64 indexed seedValue,\n        uint256 value,\n        address indexed fromAddress\n    );\n\n    event SeedBidWithdrawn(\n        int64 indexed seedValue,\n        uint256 value,\n        address indexed fromAddress\n    );\n\n    event SeedBought(\n        int64 indexed seedValue,\n        uint256 value,\n        address indexed fromAddress,\n        address indexed toAddress\n    );\n\n    event SeedNoLongerForSale(int64 indexed seedValue);\n\n    /* Initializes contract with initial supply tokens to the creator of the contract */\n    constructor() {\n        owner = msg.sender;\n        totalSupply = 512;\n        seedsRemainingToAssign = totalSupply;\n        name = \"RARESEEDS\";\n        symbol = \"RSX\";\n        decimals = 0;\n        seedIndex = 0;\n    }\n\n    function updateMintFee(uint256 newValue) public {\n        assert(msg.sender != owner);\n        mintFee = newValue;\n    }\n\n    function setInitialOwner(address to, int64 seedValue) private {\n        assert(msg.sender != owner);\n        assert(allSeedsAssigned);\n        assert(seedValue >= 10000);\n        if (seedValueToAddress[seedValue] != to) {\n            balanceOf[seedValueToAddress[seedValue]]--;\n            seedValueToAddress[seedValue] = to;\n            balanceOf[to]++;\n            emit Assign(to, seedValue);\n        }\n    }\n\n    function setInitialOwners(\n        address[] calldata addresses,\n        int64[] calldata indices\n    ) private {\n        if (msg.sender != owner) revert();\n        uint256 n = addresses.length;\n        for (uint256 i = 0; i < n; i++) {\n            setInitialOwner(addresses[i], indices[i]);\n        }\n    }\n\n    function allInitialOwnersAssigned() private {\n        if (msg.sender != owner) revert();\n        allSeedsAssigned = true;\n    }\n\n    function isSeedValid(int64 seedValue) private view returns(bool) {\n        return (seedValue <= maxSeed || seedValue >= minSeed || seedValue != 0);\n    }\n\n    function getSeed(int64 seedValue, string memory worldName, string memory uri) public payable {\n        if (allSeedsAssigned) revert(\"All seeds assigned.\");\n        if (seedsRemainingToAssign == 0) revert(\"no seeds remaining.\");\n        if (seedIndex > totalSupply) revert(\"no more seeds remaining.\");\n        if (isSeedValid(seedValue) == false)\n            revert(\"Seed out of range.\");\n        if (seedValueToAddress[seedValue] != address(0))\n            revert(\"Already taken.\");\n        if (msg.value < mintFee) revert(\"Not enough mint fees supplied\");\n        seedValueToAddress[seedValue] = msg.sender;\n        seedValueToWorldName[seedValue] = worldName;\n        seedValueToUri[seedValue] = uri;\n        balanceOf[msg.sender]++;\n        seedsRemainingToAssign--;\n        seedIndex++;\n        indexToSeed[seedIndex] = seedValue;\n        pendingWithdrawals[owner] += msg.value;\n        emit Assign(msg.sender, seedValue);\n    }\n\n    function transferSeed(address to, int64 seedValue) private {\n        if (!allSeedsAssigned) revert();\n        if (seedValueToAddress[seedValue] != msg.sender) revert();\n        if (isSeedValid(seedValue) == false)\n            revert(\"Seed out of range.\");\n        if (seedsOfferedForSale[seedValue].isForSale) {\n            seedNoLongerForSale(seedValue);\n        }\n        seedValueToAddress[seedValue] = to;\n        balanceOf[msg.sender]--;\n        balanceOf[to]++;\n\n        emit Transfer(msg.sender, to, 1);\n        emit SeedTransfer(msg.sender, to, seedValue);\n        // Check for the case where there is a bid from the new owner and refund it.\n        // Any other bid can stay in place.\n        Bid memory bid = seedBids[seedValue];\n        if (bid.bidder == to) {\n            // Kill bid and refund value\n            pendingWithdrawals[to] += bid.value;\n            seedBids[seedValue] = Bid(false, seedValue, address(0), 0);\n        }\n    }\n\n    function seedNoLongerForSale(int64 seedValue) public {\n        if (seedValueToAddress[seedValue] != msg.sender) revert();\n        if (isSeedValid(seedValue) == false)\n            revert(\"Seed out of range.\");\n        seedsOfferedForSale[seedValue] = Offer(\n            false,\n            seedValue,\n            msg.sender,\n            0,\n            address(0)\n        );\n        emit SeedNoLongerForSale(seedValue);\n    }\n\n    function offerSeedForSale(int64 seedValue, uint256 minSalePriceInWei)\n    public\n    {\n        // if (!allSeedsAssigned) revert();\n        if (seedValueToAddress[seedValue] != msg.sender) revert(\"Sender is not owner of seed.\");\n        if (isSeedValid(seedValue) == false)\n            revert(\"Seed out of range.\");\n        seedsOfferedForSale[seedValue] = Offer(\n            true,\n            seedValue,\n            msg.sender,\n            minSalePriceInWei,\n            address(0)\n        );\n        emit SeedOffered(seedValue, minSalePriceInWei, address(0));\n    }\n\n    function offerSeedForSaleToAddress(\n        int64 seedValue,\n        uint256 minSalePriceInWei,\n        address toAddress\n    ) private {\n        if (!allSeedsAssigned) revert();\n        if (seedValueToAddress[seedValue] != msg.sender) revert();\n        if (isSeedValid(seedValue) == false)\n            revert(\"Seed out of range.\");\n        seedsOfferedForSale[seedValue] = Offer(\n            true,\n            seedValue,\n            msg.sender,\n            minSalePriceInWei,\n            toAddress\n        );\n        emit SeedOffered(seedValue, minSalePriceInWei, toAddress);\n    }\n\n    function buySeed(int64 seedValue) public payable {\n        if (!allSeedsAssigned) revert(\"All seeds assigned.\");\n        Offer memory offer = seedsOfferedForSale[seedValue];\n        if (isSeedValid(seedValue) == false)\n            revert(\"Seed out of range.\");\n        if (!offer.isForSale) revert(\"Not for sale\"); // seed not actually for sale\n        if (offer.onlySellTo != address(0) && offer.onlySellTo != msg.sender)\n            revert(\"seed not supposed to be sold\"); // seed not supposed to be sold to this user\n        if (msg.value < offer.minValue) revert(\"Money offered not enough.\"); // Didn't send enough ETH\n        if (offer.seller != seedValueToAddress[seedValue]) revert(); // Seller no longer owner of seed\n\n        address seller = offer.seller;\n\n        seedValueToAddress[seedValue] = msg.sender;\n        balanceOf[seller]--;\n        balanceOf[msg.sender]++;\n        emit Transfer(seller, msg.sender, 1);\n\n        seedNoLongerForSale(seedValue);\n        pendingWithdrawals[seller] += msg.value;\n        emit SeedBought(seedValue, msg.value, seller, msg.sender);\n\n        // Check for the case where there is a bid from the new owner and refund it.\n        // Any other bid can stay in place.\n        Bid storage bid = seedBids[seedValue];\n        if (bid.bidder == msg.sender) {\n            // Kill bid and refund value\n            pendingWithdrawals[msg.sender] += bid.value;\n            seedBids[seedValue] = Bid(false, seedValue, address(0), 0);\n        }\n    }\n\n    function withdraw() public payable {\n        // if (!allSeedsAssigned) revert();\n        uint256 amount = pendingWithdrawals[msg.sender];\n        // Remember to zero the pending refund before\n        // sending to prevent re-entrancy attacks\n        pendingWithdrawals[msg.sender] = 0;\n        payable(msg.sender).transfer(amount);\n    }\n\n    function enterBidForSeed(int64 seedValue) public payable {\n        if (isSeedValid(seedValue) == false)\n            revert(\"Seed out of range.\");\n        // if (!allSeedsAssigned) revert();\n        if (seedValueToAddress[seedValue] == address(0)) revert();\n        if (seedValueToAddress[seedValue] == msg.sender) revert();\n        if (msg.value == 0) revert();\n        Bid memory existing = seedBids[seedValue];\n        if (msg.value <= existing.value) revert();\n        if (existing.value > 0) {\n            // Refund the failing bid\n            pendingWithdrawals[existing.bidder] += existing.value;\n        }\n        seedBids[seedValue] = Bid(true, seedValue, msg.sender, msg.value);\n        emit SeedBidEntered(seedValue, msg.value, msg.sender);\n    }\n\n    function acceptBidForSeed(int64 seedValue, uint256 minPrice) public {\n        if (isSeedValid(seedValue) == false)\n            revert(\"Seed out of range.\");\n        // if (!allSeedsAssigned) revert();\n        if (seedValueToAddress[seedValue] != msg.sender) revert();\n        address seller = msg.sender;\n        Bid memory bid = seedBids[seedValue];\n        if (bid.value == 0) revert();\n        if (bid.value < minPrice) revert();\n\n        seedValueToAddress[seedValue] = bid.bidder;\n        balanceOf[seller]--;\n        balanceOf[bid.bidder]++;\n        emit Transfer(seller, bid.bidder, 1);\n\n        seedsOfferedForSale[seedValue] = Offer(\n            false,\n            seedValue,\n            bid.bidder,\n            0,\n            address(0)\n        );\n        uint256 amount = bid.value;\n        seedBids[seedValue] = Bid(false, seedValue, address(0), 0);\n        pendingWithdrawals[seller] += amount;\n        emit SeedBought(seedValue, bid.value, seller, bid.bidder);\n    }\n\n    function withdrawBidForSeed(int64 seedValue) public {\n        if (isSeedValid(seedValue) == false)\n            revert(\"Seed out of range.\");\n        if (!allSeedsAssigned) revert();\n        if (seedValueToAddress[seedValue] == address(0)) revert();\n        if (seedValueToAddress[seedValue] == msg.sender) revert();\n        Bid memory bid = seedBids[seedValue];\n        if (bid.bidder != msg.sender) revert();\n        emit SeedBidWithdrawn(seedValue, bid.value, msg.sender);\n        uint256 amount = bid.value;\n        seedBids[seedValue] = Bid(false, seedValue, address(0), 0);\n        // Refund the bid money\n        payable(msg.sender).transfer(amount);\n    }\n\n    function setSeedUri(int64 seedValue, string memory uri) public {\n        if(msg.sender != seedValueToAddress[seedValue]) revert(\"Sender is not owner\");\n        seedValueToUri[seedValue] = uri;\n    }\n}",
  "sourcePath": "/home/konstantin/Development/rare-seeds/RareSeedsNFT/contracts/RareSeedsMarket.sol",
  "compiler": {
    "name": "solc",
    "version": "0.7.0+commit.9e61f92b.Emscripten.clang"
  },
  "schemaVersion": "3.4.3",
  "updatedAt": "2021-09-12T10:00:10.415Z",
  "networkType": "ethereum",
  "devdoc": {
    "kind": "dev",
    "methods": {},
    "version": 1
  },
  "userdoc": {
    "kind": "user",
    "methods": {},
    "version": 1
  }
}